:020000040800F2
:100000003804002051140008590700085B07000855
:1000100000000000000000000000000000000000E0
:100020000000000000000000000000005D07000864
:1000300000000000000000005F07000861070008E2
:1000400063140008631400086314000863140008B4
:1000500063140008631400086314000863140008A4
:100060006314000863140008631400086314000894
:100070006314000863140008631400086314000884
:1000800063140008631400080000000063140008F3
:100090006314000863140008631400086314000864
:1000A0006314000863140008631400086307000861
:1000B0006314000800000000631400080000000042
:1000C0000348854601F006FD00480047D5000008BA
:1000D000380400206BA086B000680090002000F07B
:1000E000E1FB012000F0DEFB0021084600F011FCDE
:1000F00000F046FB64A000F06CFB00F0EFF8654CEC
:100100002068C008400000F020FB624C2068C00856
:1001100000F01BFB01204003050300902B4600224A
:100120004E215D4800F076FE202000F027F92021C6
:10013000594800F0E6FE5021206801F043FA00F033
:1001400004FB0920800200902B4604224E215248D5
:1001500000F060FE042000F011F94F4800F0BFFEEF
:10016000694607460870042000F008F94A4800F084
:10017000B6FE694648700646042000F0FFF846487F
:1001800000F0ADFE694688700546042000F0F6F8E0
:10019000414800F0A4FE6946C8700446202000F0E3
:1001A000EDF83D492020C8613CA000F012FB394623
:1001B00001A800F05EFB01A800F00BFB3BA000F0E3
:1001C00008FB314601A800F054FB01A800F001FB38
:1001D00036A000F0FEFA294601A800F04AFB01A86B
:1001E00000F0F7FA31A000F0F4FA214601A800F07F
:1001F00040FB01A800F0EDFA2CA000F0EAFA38026A
:10020000801901F09BFB2A4E0022334601F01EFBB1
:100210000022284B01F0B2FA0490059126A000F0CC
:10022000D8FA0599049801F09DFB014601A800F059
:1002300020FB01A800F0CDFA1CA000F0CAFAA8012A
:10024000A108401801F07AFB0022334601F0FEFAC3
:1002500000221C4B01F092FA00221B4B01F080FAA5
:100260000591049001F07EFB014601A800F001FB1E
:1002700016A000F0AEFA01A800F0ABFA0BA000F057
:10028000A8FA42E7010203045465737420555341F0
:1002900052540A002400002000540040696E636F2D
:1002A0006D6D696E6720646174613A200A00000018
:1002B00000FFCF400000594048756D69646974794A
:1002C0003A20000000A064400000444054656D7076
:1002D000657261747572653A20000000F0B589B0EE
:1002E000102000F071FF0121480501F013F80121F1
:1002F000880400F0FDFF684600F02BFCFF20013071
:10030000009001256846057100248471C47103269C
:10031000FC4F46716946384600F0E3FB0122062196
:10032000384600F04AFC01220721384600F045FC1F
:10033000684600F00EFC022168460171C020009062
:100340006846C571857146716946384600F0C9FB3B
:1003500002A800F08CFC089407940394049405947C
:100360000694E948E94C029002A9204600F051FCAD
:100370000121204600F086FC09B0F0BDF8B501244B
:100380002403E1000126E24F0546884202D00CE03A
:10039000641E08D32946DD4800F0ACFD0028F7D1E3
:1003A000F8BD641E01D23E60F8BD2946D74800F072
:1003B000A1FD0028F5D0F8BDF8B505460120C00321
:1003C000FFF7DCFF01204003D04E00900023012204
:1003D0007621304600F01EFD0220FFF7CFFF0021FE
:1003E000304600F07AFD4020FFF7C8FF0920800268
:1003F000012300905B0601227621304600F00AFDC1
:100400000420FFF7BBFF304600F069FD04462020C2
:10041000FFF7B4FF2020F061002D03D0012D04D0A0
:100420002046F8BDE009C001F8BD6006400EF8BDE9
:10043000F8B5FF20B34C0130A0617D26B54D7601A3
:100440003146286801F0BEF800F07FF9A003A061F2
:100450003146286801F0B6F800F077F90020FFF780
:10046000ABFF0028FAD10120C003FFF787FF01206E
:100470004003A64C030300900A227621204600F098
:10048000C9FC0220FFF77AFF0021204600F025FD7D
:100490000220FFF773FF2521204600F01EFD0220F9
:1004A000FFF76CFF0721204600F017FD0220FFF741
:1004B00065FF0821204600F010FD0220FFF75EFFD7
:1004C0004021204600F009FD0220FFF757FFA82138
:1004D000204600F002FD0220FFF750FF24212046B5
:1004E00000F0FBFC0220FFF749FF0C21204600F042
:1004F000F4FC0220FFF742FF0621204600F0EDFC4D
:100500000220FFF73BFF0221204600F0E6FC2020FE
:10051000FFF734FF2021204600F0F3FCF8BD38B58A
:1005200005460020FFF748FF0028FAD10120C0034C
:10053000FFF724FF01204003744C030300900222C4
:100540007621204600F066FC0220FFF717FF00210D
:10055000204600F0C2FC0220FFF710FF294620468B
:1005600000F0BBFC2020FFF709FF2021204600F00F
:10057000C8FC38BD0220D2E738B550240220FFF76E
:10058000CEFF0020FFF718FF0028FAD10120C0039A
:10059000FFF7F4FE012040035C4D03030090621C52
:1005A0007621284600F036FC0220FFF7E7FE4021C6
:1005B000284600F092FC641E0220FFF7DFFEA02117
:1005C000284600F08AFC641EF6D22020FFF7D6FEF3
:1005D0002021284600F095FC0220FFF7A0FF38BD3F
:1005E000890108188030C0B299E738B50546002067
:1005F000FFF7E2FE0028FAD10120C003FFF7BEFE9C
:1006000001204003414C0303009002227621204642
:1006100000F000FC0220FFF7B1FE4021204600F070
:100620005CFC0220FFF7AAFE2946204600F055FC9C
:100630002020FFF7A3FE2021204600F062FC38BDF9
:1006400038B50020FFF7B8FE0028FAD10120C0031A
:10065000FFF794FE012040032C4C00900023012260
:100660007621204600F0D6FB0220FFF787FE4021CE
:10067000204600F032FC4020FFF780FE0920800277
:10068000012300905B0601227621204600F0C2FB88
:100690000420FFF773FE204600F021FC05462020D1
:1006A000FFF76CFE2020E061284638BD802108431A
:1006B0009BE7F8B50546002400E0641C0178401C67
:1006C0000029FAD1002C39D00020FFF775FE002850
:1006D000FAD10120C003FFF751FE01204003009032
:1006E000601C0A4EC2B201235B067621304600F040
:1006F00091FB0220FFF742FE4021304600F0EDFB67
:10070000802712E0000400480A0333200054004010
:1007100000000020240000200220FFF72FFE29788F
:10072000304639436D1C00F0D8FB641EF4D2202003
:10073000FFF724FE2021304600F0E3FBF8BD10B5A2
:10074000FFF77EFF4006400E10BD08B50090002860
:1007500001DD401EFAE708BD7047FEE770477047AD
:1007600070470548C069800604D50348203080885A
:100770000249087070470000003801400400002062
:100780004348416901225204114341610921C906CC
:100790000A680523DB041A430A604A6AFF231133FF
:1007A0001A434A6281690122920311438161FF2148
:1007B0003848A13181810D210160002141608160B3
:1007C00070473449CA691206FCD532492031088184
:1007D000704700B5034608E00A2802D10D20FFF754
:1007E000F0FF18785B1CFFF7ECFF18780028F3D1B6
:1007F00000BD2848C169090703D5016A08221143D1
:100800000162C1698906FCD5224820308088C0B2C7
:10081000704700B50346FFF7ECFF18700D2801D0B4
:100820005B1CF8E70020187000BD0EB51AA103C9C3
:10083000009001911AA0006802906846FFF7C9FF76
:1008400002A8FFF7C6FF0EBDF8B50F4604460A26FC
:100850003846314600F0CCFE0D46F74204DC014636
:100860002046FFF7F1FF04463020401B2070601C3B
:10087000F8BD10B50446002903DA2D220270601C71
:1008800000E04942FFF7E0FF00210170204610BD63
:1008900000100240003801401B5B324A000000009B
:1008A0001B5B66007CB50446850043480121405926
:1008B00000F01EFD404960000A39085A00900120EE
:1008C0006946087100208871C871032048713B484F
:1008D000405900F006F97CBD374A41000A3A515AA6
:1008E000364A8000105881617047334A41000A3A05
:1008F000515A324A80001058018570472F498200B2
:1009000089588A8A2C4B40000A3B185A42408A82F6
:100910007047F3B505468700274885B0001FC059CA
:10092000012100F0E5FC0121084600F0EAFC002668
:1009300068460673C67320486C001438005B02904A
:100940001E4802A9001FC05900F0CBF806980128E4
:1009500023D119480E38015D801E005D00F054FD62
:1009600015481238005B009068460671002D01D0D2
:10097000082000E00C206946487101256846857111
:1009800000F028F80C480C38015D6846017403211A
:100990004174857404A800F0CBFA07B0F0BD064A94
:1009A00010B54100143A515A044A8000121F1058E1
:1009B00000F0E5F810BD0000581B00080C000020F6
:1009C000324831490160002141608160C160304995
:1009D0004161704710B583792C490268002B26D0FD
:1009E0000B6893430B604A6803689A434A60027934
:1009F000521813680468234313608A6803689A4393
:100A00008A60CA6803689A43CA604279102A05D08E
:100A100051180A68006802430A6010BD8A680368BA
:100A20001A438A60CA6800680243CA6010BD007930
:100A3000401801689143016010BD002101600171FF
:100A40000C2242718171704710490A6902430A61A0
:100A500070470E4A0146526900200A4200D0012028
:100A600070470A4948617047084A014613680020E8
:100A700052690B400A4202D0002B00D0012070477F
:100A800002494861704700000000940F00040140D3
:100A9000FFFF6B00092110B5C906884202D1012170
:100AA0004C0404E04D49884209D10121040220464A
:100AB00000F039FC0021204600F035FC10BD48490B
:100AC000884202D101210402F1E74649884202D15D
:100AD00001210C05EBE744498842EFD101218C0547
:100AE000E5E7F0B50022012423460D6893401D4040
:100AF0009D422AD10D79012D01D0022D12D1876896
:100B000055000326AE40B74387604E79AE408568F6
:100B10002E43866085889D43858085888B799340A8
:100B20001D438580066855000323AB409E43066045
:100B30000E790768AE403E430660C6689E43C660B5
:100B4000CB79AB40C5682B43C360521C102ACBD372
:100B5000F0BD2649016000210171022242718171BC
:100B6000C1717047012208B512040A430092C261A4
:100B7000C1610099C161C169C069009008BD0246A8
:100B8000128A00200A4200D001207047008A704774
:100B90000246928A00200A4200D001207047808AD3
:100BA00070478161704701857047002A01D08161DB
:100BB000704701857047818270474B07DB0E9A4072
:100BC000C90810B589000818016A0F249C40A14388
:100BD0000162016A1143016210BD00000004004877
:100BE00000080048000C004800140048FFFF000007
:100BF000C94910B5884202D101214C0501E001210B
:100C00008C05204600F0A1FB0021204600F09DFB52
:100C100010BD10B502685208520002600268BF4B56
:100C20008C681A4024024B681443234303600F234B
:100C30000A681B069A430261026801231A43026094
:100C400000228260C2600B698A691A4382608268EE
:100C50000123DB031A438260CA68036813430360FD
:100C60004268AF4B49691A401143416010BD0021F1
:100C7000016041608160C1600122D2030161426173
:100C8000816170470029016802D00122114301E00F
:100C90004908490001607047012252030029016898
:100CA00001D0114300E0914301607047002A0268BF
:100CB00001D00A4300E08A430260704701225204D7
:100CC0000029016801D0914300E0114301607047A1
:100CD000012292040029016801D0114300E09143F0
:100CE000016070470122D2030029C16801D011437D
:100CF00000E09143C160704710B5C368894C52074A
:100D00002340FE242140520D11431943C16010BD00
:100D10000122D2040029016801D0114300E091436F
:100D200001607047012212040029016801D01143BB
:100D300000E091430160704742688905920A92027F
:100D4000890D1143416070470122D2020029416898
:100D500001D0114300E091434160704701225206E7
:100D60000029416801D0114300E091434160704780
:100D7000012212060029416801D0114300E091438D
:100D8000416070474268FF231B049A4309041143E2
:100D900041607047012292020029416802D011434C
:100DA000416070479143FBE70122520300294168EB
:100DB00001D0114300E0914341607047012292034A
:100DC0000029416801D0114300E091434160704720
:100DD000012212030029416801D0114300E0914330
:100DE000416070470122D2030029416801D091433C
:100DF00000E01143416070478069FE21000C08400B
:100E0000704701468969002001221204114200D076
:100E10009011704770B5049D44688905890D1204CE
:100E2000414E11431943344029432143416070BD71
:100E3000012292050029016801D0114300E091438D
:100E4000016070470122D2030029416901D011439A
:100E500000E09143416170470029416903D00122BC
:100E6000D207114301E0490049084161704701225E
:100E700012030029416901D0114300E0914341610F
:100E8000704742690905120B1203090D11434161B4
:100E900070474269254B09051A4009091143416110
:100EA00070470122D2050029016801D0114300E0FA
:100EB000914301607047012292060029016801D028
:100EC000114300E0914301607047006AC0B270476F
:100ED00008B540180090006808BD81627047406AFC
:100EE000C0B27047002A026801D00A4300E08A437A
:100EF000026070470246926900200A4200D0012039
:100F00007047C16170470246926900200A4200D0D2
:100F100001207047C161704700540040FFE0CF00DE
:100F2000FF7FFF0701F8FFFF009800FCFFFF00F0C4
:100F300030B5837801210278002B15D09408174B27
:100F4000A400E41823689207D50EFF22AA40934319
:100F500042789207120EAA401A4322600078C00617
:100F6000C00E81400E4804E0D006C00E81400C48FF
:100F70008030016030BD0B4A0029116901D0014366
:100F800000E0814311617047042207490428086981
:100F900002D09043086170471043FBE700E400E093
:100FA00000E100E000ED00E000E000E0F74801684B
:100FB0000122114301604168F54A11404160016816
:100FC000F44A1140016001680122920491430160DA
:100FD00041683F22120491434160C16A0909090135
:100FE000C162016BFF22543291430163416B490896
:100FF00049004163002181607047E44900228A7002
:101000008870704703460020E0495A090CD0012A35
:101010000CD0022A0CD0496BDA06D20E0123934081
:101020000B4200D0012070470968F5E7096AF3E731
:10103000496AF1E718B50020052424020090112028
:10104000FFF7E0FF0099491C0091A14201D0002860
:10105000F5D01120FFF7D6FF002800D0012018BDE1
:10106000CA4A1168F8239943C000084310607047CA
:10107000C6490028086802D00122104301E0400858
:10108000400008607047C14A516BF8239943C00083
:10109000084350637047BD490028486B02D00122C5
:1010A000104301E04008400048637047B7490422FC
:1010B0000028486B01D0904300E01043486370471C
:1010C000B2490A6A520852000A620A6A04239A4321
:1010D0000A620A6A02430A627047AC490A6A182324
:1010E0009A430A620A6A02430A627047A7490028C3
:1010F000486A02D00122104301E0400840004862E3
:10110000704710B5A14A53683D242404A34353609B
:10111000536808430343536010BD01229B491206E4
:101120000028086801D0104300E090430860704731
:10113000964AD16A090909010143D1627047012227
:101140009249D2040028086801D0104300E090437F
:10115000086070478D49C87170478C4A516889088A
:101160008900014351607047884840680C2108405D
:101170007047864A5168F023994301435160704794
:10118000824A516807231B0299430143516070470B
:101190007E494A6801239B039A434A604A6883B2A6
:1011A0001A434A600A6B8B159A430A630A6B000C58
:1011B00002430A63704775490A6B40239A430A63E6
:1011C0000A6B02430A63704770490A6B10239A4303
:1011D0000A630A6B02430A6370476C490A6B920800
:1011E00092000A630A6B02430A637047F8B5674DC1
:1011F000044668680C21684E084003D0042801D0DA
:10120000082801D0266012E0696868680122890216
:1012100012040F0F1040BF1C00281CD0E86A010701
:10122000090F3046491C00F0CDF97843206068680A
:101230005A4B0006000F1A5C20680146D1406160DD
:101240006A685205520F9A5CD140A1602A6BD205A0
:1012500005D4534A09E0534847432760E7E76A68E3
:10126000520401D44A0800E08A08E2602A6B53065F
:101270004D4A03D44C4B1233236100E022612B6BA7
:10128000DB0601D4666100E060612B6B9B070FD029
:10129000296B8907890F01290CD0286B8007800FE3
:1012A000022809D0286BC043800700D1A661F8BD91
:1012B000A161F8BDA061F8BDA261F8BD33490A6A19
:1012C00002430A62704731490028374A086A01D050
:1012D000104300E090430862704701222B4912043A
:1012E0000028086A01D0104300E09043086270476C
:1012F000264A0029516901D0014300E08143516130
:101300007047224A0029916901D0014300E08143DE
:10131000916170471D4A0029D16901D0014300E065
:101320008143D1617047194A0029916A01D0014374
:1013300000E0814391627047144A0029D16801D0CE
:10134000014300E08143D1607047104A00291169D0
:1013500001D0014300E08143116170470B4A00292D
:10136000517A01D0014300E0814351727047074830
:10137000416A01221206114341627047034A014645
:10138000926800200A4200D00120704700100240FD
:101390000CB8FFF8FFFFF6FE00127A0014000020E0
:1013A000809FD50000093D0000800000014988723F
:1013B000EBE7000000100240244801688907890F0C
:1013C000016000218160C160016141618169821514
:1013D0001143816170471D4A1168890889000143E2
:1013E00011607047194A0029116801D0014300E0DB
:1013F000814311607047154A0029116801D00143EB
:1014000000E08143116070478A07130F10B50F2267
:101410009A408C080D49A40061188C6894438C6034
:101420008A68984002438A6010BD08498A6902436D
:101430008A617047054900208969C90500D50120E6
:10144000704702498A6902438A617047000001407F
:101450000448804704480047FEE7FEE7FEE7FEE752
:10146000FEE7FEE76D140008C100000810B54E4805
:10147000016801221143016041684C4A11404160FA
:1014800001684B4A114001600168012292049143B6
:10149000016041683F22120491434160C16A090919
:1014A0000901C162016BFF22543291430163416B18
:1014B0004908490041630021816000F02EF810BD09
:1014C00070B5394D69680C2001403A483A4C03D058
:1014D000042901D0082901D0206014E06A686968F5
:1014E000012392021B04160F1940B61C002907D0D5
:1014F000E96A0907090F491C00F064F87043EBE73B
:101500002E484643266068682B490006000F091DD7
:10151000085C2168C140216070BD1CB500212248D3
:1015200001910091026801231B041A4302605B00D1
:101530000522120204681C400094019C641C019462
:10154000009C002C02D1019C9442F3D102689203CA
:1015500028D5012100911A4A11211160416841608A
:101560004168416041683F221204914341604168F3
:101570001122120411434160016801221206114335
:10158000016001688901FCD54168890889004160D2
:10159000416802221143416041680907890F02290D
:1015A000FAD11CBD00911CBD001002400CB8FFF820
:1015B000FFFFF6FE00127A002400002000093D0023
:1015C0000020024030B50B460146002020220124B5
:1015D00009E00D46D5409D4205D31D469540491B67
:1015E0002546954040191546521E002DF1DC30BDB0
:1015F00070B500242546002801DA01244042002964
:1016000001DA01254942FFF7DDFFAC4200D040423C
:10161000002C00D0494270BDF0B50746084658403E
:1016200087B0C00F049048000E4659004008490892
:10163000BC1A884105D2384631461E4617460B462D
:1016400002465800400810434CD0300D039040052E
:101650005900400D490D0590401A0290402872DA59
:1016600018030121000B090508430190049800921A
:10167000002805D001995242002088410092019033
:10168000029840210A1A0199009800F08FF9054646
:101690000C466B4607CB00F0AAF9C0197141039ABA
:1016A0000E0D0023D71756401A467A40164344D0F1
:1016B000049A002A2DD0029A012A039A15DC1205F9
:1016C000C01A914101263605001C7141D20F059EBA
:1016D000D2070093019202962A46234600F0A7F90A
:1016E00007B0F0BD38463146FAE71605224A0F46E4
:1016F000B218C01AB74101210905001C4F4100185A
:101700007F41114618187941E20F10436D19644169
:1017100013E0E2076D0815436408C2071443039AF7
:1017200001261205C01A91413605001C7141CE07F1
:10173000400830434908C01851412A46234600F06A
:1017400069F9CDE7FFE7049801224000C117121A9A
:1017500000238B4104983146C417381AA141EEE7A3
:1017600030B40124E407634030BC55E730B40124B1
:10177000E407614030BC4FE70000E0FFF0B51FB464
:1017800088B00B990998002448400999C00F490076
:1017900049080991C0070B990090490049080B912D
:1017A00009990898A64608431CD00B990A98084343
:1017B00018D0099801244000420D4800410D0998B5
:1017C00024050003000B204309900B980003000B35
:1017D00020430B9050181C494018002201901446D9
:1017E000104605E0002001460DB0F0BD032801DAE7
:1017F000034600E003239C46C11A0AAE0AE05F00DC
:1018000008ADED5B4F00F75B7D430027AA187C41D4
:10181000491C5B1E6145F2DD410004AB5A522104B4
:10182000120C0A43240C401C0828DFDB01980290AC
:101830000099704601910090059B049A07990698BB
:1018400000F0F5F8D0E700000DFCFFFFF0B50C4606
:101850005C4085B0E40FE40703944C000026640864
:1018600059009446490802460296224321D0624616
:101870000A431ED06200570D4A000E032303550D84
:10188000012402462C492405781B1B0B360B4018FB
:1018900023432643614600901C46501AB44103D3AB
:1018A0000098401C009002E0921800985B410028CC
:1018B00003DA0020014605B0F0BD00200121090532
:1018C0000746864611E064461D46141BB54106D303
:1018D0006546521BB341744607430C43A646CD07E9
:1018E00040084908284392185B4105460D43EAD158
:1018F0001046184313D060461946504071400843C3
:1019000006D06046101AB34106D20122002306E039
:1019100000220123DB0702E00122D243531000988A
:1019200074460105381C6141029C039D0019694100
:1019300000F070F8BFE70000FD0300000EB5C2170D
:10194000C10F5040CA0740180021054B0293019275
:1019500000910A460B4600F06AF803B000BD000093
:101960003304000070B5CD0F4A0009030123090BB1
:101970001B0519430B4BED070024520D9A4201DA67
:10198000002070BD074B34339A4203DC9A1A00F0F2
:101990001DF802E00449511888402C43F1D0404220
:1019A00070BD0000FF030000CDFBFFFF10B5202A33
:1019B00004DB0146203A9140002010BD91402023D5
:1019C0009C1A0346E3401943904010BD10B5202AED
:1019D00004DB0846203AD040002110BD0B46D3401E
:1019E000D0402024A21A91400843194610BD10B5DA
:1019F000202A06DBCB170846203A1041C1170B43BB
:101A000006E00B461341D0402024A21A914008431F
:101A1000194610BD10B5002B08DA0024401C6141A6
:101A200092185B411A4301D14008400010BDF0B547
:101A30001FB482B005460C0003D0084600F05CF8E5
:101A400002E000F059F82030024600902146284676
:101A5000FFF7ACFF049B059A04460F461843114359
:101A6000084314D0184610431BD0009840210A1A8E
:101A700018460599FFF7AAFF05460E46009A0599F4
:101A80000498FFF793FF084305D0012004E02046A7
:101A9000394607B0F0BD0020C11705430E432C4363
:101AA000374300990E986305401A7905E40A00222D
:101AB0000C43FD0A0A3002D500200146E9E7010582
:101AC000101969410C9C0D9D00196941FFF7A2FF97
:101AD000DFE70000064C0125064E05E0E36807CC71
:101AE0002B430C3C98471034B442F7D3FEF7ECFA82
:101AF000601B0008801B00082021020C01D010216F
:101B00001046020A01D010460839020901D01046D9
:101B1000091F820801D01046891E420801D0881E84
:101B20007047081A704702E008C8121F08C1002A4F
:101B3000FAD170477047002001E001C1121F002A4E
:101B4000FBD1704701000100000000000500000209
:101B50000001000000000200000008000000080072
:101B6000801B00080000002038000000261B000831
:101B7000B81B00083800002000040000361B0008D5
:101B800000000000000000000000004800080048BD
:101B900000080048000000000102030401020304E1
:101BA00006070809006CDC020000000000000000CD
:081BB000010203040607080905
:04000005080000C12E
:00000001FF
