:020000040800F2
:1000000038040020B5130008E1010008E3010008EE
:1000100000000000000000000000000000000000E0
:10002000000000000000000000000000E5010008E2
:100030000000000000000000E7010008E9010008DE
:10004000C7130008C7130008C7130008C713000828
:10005000C7130008FF010008C7130008C7130008F2
:10006000C7130008C7130008C7130008C713000808
:10007000C7130008C7130008C713000809020008C7
:10008000C7130008C713000800000000C7130008CA
:10009000C7130008C7130008C7130008C7130008D8
:1000A000C7130008C7130008C7130008EB010008B6
:1000B000C713000800000000C7130008000000007C
:1000C0000348854601F046FA00480047D50000087D
:1000D0003804002001218CB0480400F02DFC0121DF
:1000E000084600F03BFC002469460C850C8433482C
:1000F000099001254C84AD0708A9284600F018FD99
:1001000069468C83602088810C830126CE812C482F
:10011000059003A9284600F0ACFD0021284600F018
:10012000EFFE0121284601F08FF8012211462846F2
:1001300001F06AF80F20694608728E724C7202A8AC
:1001400000F01AFA02206946009608718C710924A1
:10015000E4064E71204600F088F902220021204674
:1001600000F0EFF90121284600F053FD154E164C22
:10017000164F3146284600F072FE2821206801F013
:10018000D3F900F025F80021284600F068FE206829
:10019000000900F01DF83946284600F060FE2821CD
:1001A000206801F0C1F900F013F80021284600F0A2
:1001B00056FE2068000900F00BF8DAE7FFA50E00F4
:1001C00080BB0000D8D6000020000020204801009D
:1001D00008B50090002801DD401EFAE708BD0000C8
:1001E0007047FEE77047704770470E48C069800649
:1001F00004D50C48203080880B490870704710B532
:10020000012000F03FF810BD10B501218C072046F9
:1002100001F00EF8012803D10121204601F014F865
:1002200010BD000000380140000000207CB50446ED
:10023000850043480121405900F07EFB40496000A1
:100240000A39085A00900120694608710020887117
:10025000C871032048713B48405900F006F97CBD45
:10026000374A41000A3A515A364A80001058816193
:100270007047334A41000A3A515A324A80001058B6
:10028000018570472F49820089588A8A2C4B40008B
:100290000A3B185A42408A827047F3B505468700E8
:1002A000274885B0001FC059012100F045FB0121FE
:1002B000084600F04AFB002668460673C6732048CD
:1002C0006C001438005B02901E4802A9001FC05940
:1002D00000F0CBF80698012823D119480E38015DAB
:1002E000801E005D00F0B4FB15481238005B0090E2
:1002F00068460671002D01D0082000E00C206946F8
:10030000487101256846857100F028F80C480C38C2
:10031000015D6846017403214174857404A800F0EE
:100320002BF907B0F0BD064A10B54100143A515AF6
:10033000044A8000121F105800F0E5F810BD0000BC
:10034000AC15000808000020324831490160002146
:1003500041608160C16030494161704710B5837967
:100360002C490268002B26D00B6893430B604A6827
:1003700003689A434A600279521813680468234359
:1003800013608A6803689A438A60CA6803689A435C
:10039000CA604279102A05D051180A6800680243E1
:1003A0000A6010BD8A6803681A438A60CA680068D8
:1003B0000243CA6010BD0079401801689143016092
:1003C00010BD0021016001710C22427181717047E2
:1003D00010490A6902430A6170470E4A0146526990
:1003E00000200A4200D0012070470A494861704746
:1003F000084A01461368002052690B400A4202D0A5
:10040000002B00D00120704702494861704700006E
:100410000000940F00040140FFFF6B00092110B59C
:10042000C906884202D101214C0404E04D498842AA
:1004300009D101210402204600F099FA002120464A
:1004400000F095FA10BD4849884202D1012104020A
:10045000F1E74649884202D101210C05EBE7444906
:100460008842EFD101218C05E5E7F0B50022012497
:1004700023460D6893401D409D422AD10D79012DE0
:1004800001D0022D12D1876855000326AE40B74334
:1004900087604E79AE4085682E43866085889D438F
:1004A000858085888B7993401D438580066855003B
:1004B0000323AB409E4306600E790768AE403E437F
:1004C0000660C6689E43C660CB79AB40C5682B43C7
:1004D000C360521C102ACBD3F0BD26490160002115
:1004E0000171022242718171C1717047012208B508
:1004F00012040A430092C261C1610099C161C169DD
:10050000C069009008BD0246128A00200A4200D04D
:1005100001207047008A70470246928A00200A42F2
:1005200000D001207047808A704781617047018543
:100530007047002A01D08161704701857047818230
:1005400070474B07DB0E9A40C90810B589000818A0
:10055000016A0F249C40A1430162016A11430162B8
:1005600010BD00000004004800080048000C0048CE
:1005700000140048FFFF000030B5837801210278A5
:10058000002B15D09408174BA400E4182368920799
:10059000D50EFF22AA40934342789207120EAA403A
:1005A0001A4322600078C006C00E81400E4804E065
:1005B000D006C00E81400C488030016030BD0B4A2F
:1005C0000029116901D0014300E0814311617047A6
:1005D000042207490428086902D090430861704743
:1005E0001043FBE700E400E000E100E000ED00E084
:1005F00000E000E0F7480168012211430160416812
:10060000F54A114041600168F44A114001600168F7
:10061000012292049143016041683F2212049143F8
:100620004160C16A09090901C162016BFF225432AC
:1006300091430163416B4908490041630021816096
:100640007047E44900228A70887070470346002092
:10065000E0495A090CD0012A0CD0022A0CD0496B6F
:10066000DA06D20E012393400B4200D001207047DE
:100670000968F5E7096AF3E7496AF1E718B5002068
:100680000524240200901120FFF7E0FF0099491C87
:100690000091A14201D00028F5D01120FFF7D6FF2C
:1006A000002800D0012018BDCA4A1168F8239943D8
:1006B000C000084310607047C6490028086802D08F
:1006C0000122104301E04008400008607047C14A21
:1006D000516BF8239943C000084350637047BD49EC
:1006E0000028486B02D00122104301E0400840007E
:1006F00048637047B74904220028486B01D09043F3
:1007000000E0104348637047B2490A6A5208520039
:100710000A620A6A04239A430A620A6A02430A6264
:100720007047AC490A6A18239A430A620A6A02436C
:100730000A627047A7490028486A02D00122104384
:1007400001E0400840004862704710B5A14A536874
:100750003D242404A3435360536808430343536078
:1007600010BD01229B4912060028086801D01043E1
:1007700000E0904308607047964AD16A0909090170
:100780000143D162704701229249D20400280868CF
:1007900001D0104300E09043086070478D49C87154
:1007A00070478C4A5168890889000143516070473D
:1007B000884840680C2108407047864A5168F023F9
:1007C0009943014351607047824A516807231B02D5
:1007D00099430143516070477E494A6801239B0356
:1007E0009A434A604A6883B21A434A600A6B8B157F
:1007F0009A430A630A6B000C02430A637047754907
:100800000A6B40239A430A630A6B02430A637047E8
:1008100070490A6B10239A430A630A6B02430A6306
:1008200070476C490A6B920892000A630A6B024394
:100830000A637047F8B5674D044668680C21684E36
:10084000084003D0042801D0082801D0266012E017
:10085000696868680122890212040F0F1040BF1CEA
:1008600000281CD0E86A0107090F3046491C00F037
:100870005BFE7843206068685A4B0006000F1A5CE4
:1008800020680146D14061606A685205520F9A5C47
:10089000D140A1602A6BD20505D4534A09E05348E0
:1008A00047432760E7E76A68520401D44A0800E03A
:1008B0008A08E2602A6B53064D4A03D44C4B12332C
:1008C000236100E022612B6BDB0601D4666100E04E
:1008D00060612B6B9B070FD0296B8907890F01295A
:1008E0000CD0286B8007800F022809D0286BC043EA
:1008F000800700D1A661F8BDA161F8BDA061F8BD77
:10090000A261F8BD33490A6A02430A62704731495D
:100910000028374A086A01D0104300E0904308627B
:10092000704701222B4912040028086A01D01043A5
:1009300000E0904308627047264A0029516901D0BF
:10094000014300E0814351617047224A00299169C7
:1009500001D0014300E08143916170471D4A0029A5
:10096000D16901D0014300E08143D1617047194A48
:100970000029916A01D0014300E0814391627047F0
:10098000144A0029D16801D0014300E08143D160BD
:100990007047104A0029116901D0014300E08143EA
:1009A000116170470B4A0029517A01D0014300E0E0
:1009B0008143517270470748416A01221206114370
:1009C00041627047034A0146926800200A4200D003
:1009D00001207047001002400CB8FFF8FFFFF6FE40
:1009E00000127A0010000020809FD50000093D0011
:1009F0000080000001498872EBE70000001002400F
:100A0000244801688907890F016000218160C16065
:100A100001614161816982151143816170471D4AFD
:100A2000116889088900014311607047194A00293B
:100A3000116801D0014300E0814311607047154AFD
:100A40000029116801D0014300E081431160704723
:100A50008A07130F10B50F229A408C080D49A40085
:100A600061188C6894438C608A68984002438A605D
:100A700010BD08498A6902438A6170470549002010
:100A80008969C90500D50120704702498A69024376
:100A90008A61704700000140F84910B5884202D1D0
:100AA0000121C41430E001218907884206D10121C7
:100AB0000846FFF76EFF0021012008E0F049884258
:100AC00008D101210220FFF764FF00210220FFF777
:100AD00060FF10BDEB49884206D101211020FFF7CD
:100AE00058FF00211020F2E7E749884207D184151A
:100AF00001212046FFF74DFF00212046E7E7E349AB
:100B0000884209D101210C042046FFF739FF00215A
:100B10002046FFF735FF10BDDD49884202D1012193
:100B20004C04F1E7DB498842F5D101218C04EBE765
:100B300010B50288D14B984206D00124A407A042E8
:100B400002D0CF4CA04203D17024A2434C88224350
:100B5000CC4CA04203D0D04C22400C8922430280CE
:100B60004A68C2620A880285984208D0C74A904201
:100B700005D0C74A904202D0C64A904201D1897A34
:100B800001860121818210BD0021C94341600021FD
:100B900001800181418081727047018582827047A6
:100BA000028870239A430A4302807047416270476B
:100BB000C1627047406A7047008D70470222002969
:100BC000018801D0114300E0914301807047042265
:100BD0000029018801D0114300E091430180704752
:100BE00080220029018801D0114300E09143018057
:100BF0007047028808239A43028002880A430280D1
:100C000070470288A44B1A40028002880A4302807F
:100C100070470029018802D00122114301E04908F0
:100C200049000180704710B50A884B88CC881A4368
:100C30008B8823431A430B891A434B8989891A43AA
:100C40000A434030828010BD0021018041808180B4
:100C5000C1800181418181817047403000298188B4
:100C600003D00122D203114301E04904490C8180E1
:100C7000704730B5028C520852000284038C82887F
:100C8000048B7025AC43A4080D88A40025430224DE
:100C9000A3438C891C434B882343784CA04208D043
:100CA0007A4CA04205D07A4CA04202D0794CA042A6
:100CB0000DD10824A343CC891C4304239C438B8877
:100CC0002343754C22400C8A14434A8A2243828073
:100CD000058389684163038430BD70B5028C10239D
:100CE0009A430284048C8288038B6C4D2B400D78D0
:100CF0002D062D0C1D4320239C438B891B051E0CA8
:100D00004B8826431B051B0C5C4C3343A04215D17A
:100D10008024A343CC892405240C1C4340239C43FA
:100D20008B881B051B0C23435D4C22400C8AA404BA
:100D3000240C14434A8A9204120C224382800583B5
:100D400089688163038470BD30B5028C554B1A40AD
:100D50000284038C8288848B7025AC43A4080D88A0
:100D6000A4002543504C23400C7B2406240C1C4338
:100D70008B781B061B0C2343404CA04215D14B4CD7
:100D800023408C7B2406240C1C43494B1C400B79CC
:100D90001B061B0C2343474C22400C8A2405240CC1
:100DA00014434A8A1205120C224382808583896883
:100DB000C163038430BD30B5028C3F4B1A400284BE
:100DC000048C8388828B354D2A400D782D062D0C9E
:100DD00015433A4A14400A7B1207120C22438C78BE
:100DE0002407240C1443254A904205D1344A134069
:100DF0000A8A9205120C13438380858389680164F3
:100E0000048430BD00210180418081808160818126
:100E1000C18101824182704730B5034618330124F5
:100E2000058C8C40A5430584002910D008290ED0DC
:100E3000091F0804400CC018016807231B039943CD
:100E4000016001681206120C1143016030BD4808B0
:100E5000C01801687023994301600168F4E7416399
:100E6000704781637047C163704701647047028BAC
:100E700070239A430A43028370470000002C01400C
:100E800000040040001000400020004000400140ED
:100E90000044014000480140FFFC0000FF8C0000BE
:100EA000FFF30000FFFE0000FFFD0000FFF7000061
:100EB000FFFB0000FFCF0000FFEF0000FFDF00009E
:100EC000FFBF0000028BF64B09021A401143018359
:100ED000D2E7828B70239A430A438283CCE7828BCA
:100EE000EF4B09021A4011438183C5E7002981882D
:100EF00002D00122114301E0490849008180BBE78B
:100F0000028B08239A430A430283B5E7028BE54B21
:100F100009021A4011430183AEE7828B08239A43EA
:100F20000A438283A8E7828BDE4B09021A401143F1
:100F30008183A1E7028B04239A430A4302839BE740
:100F4000028BD94B09021A401143018394E7828B2B
:100F500004239A430A4382838EE7828BD24B090291
:100F60001A401143818387E7028B80239A430A4307
:100F7000028381E7028B5204520C09021143018360
:100F80007AE7828B80239A430A43828374E7828BB9
:100F90005204520C0902114381836DE7028C022333
:100FA0009A430A43028467E7028C08239A430A4360
:100FB000028461E7028C20239A43090111430184D2
:100FC0005AE7028C80239A4309011143018453E7B5
:100FD000028CB64B09021A40114301844CE7028C83
:100FE000B04B09021A401143018445E7028CB04B13
:100FF00009031A40114301843EE7028908239A43FA
:10100000028102890A43028136E710B50123048C6C
:101010008B409C430484038C8A401343038410BD9B
:1010200010B50423048C8B409C430484038C8A40B9
:101030001343038410BD04220029818801D0114389
:1010400000E09143818017E7828B9A4B1A4082839C
:10105000828B09020A4382830EE7828B0C239A4318
:101060008283828B0A43828306E7028B914B1A406C
:101070000283028B09020A430283FDE6F0B5048C69
:101080001026B4430484058B048C8B4F1B03090189
:101090003D402B4312021A43A0239C430C4334438C
:1010A00002830484F0BD028B0C239A430283028BDB
:1010B0000A430283E0E670B5048C6408640004848B
:1010C000058B048C1B011343F3260A22B54394437A
:1010D0002B430C4301210C430383048470BDF8B5FA
:1010E000044608884E888A880B890D4600281DD042
:1010F000042824D00828208C2AD070490840208455
:10110000A08B278C31036C4E12023040024318032F
:1011100010436B4AA08317400F43012109030F437B
:101120002784E9882046FFF78FFFF8BD3146204627
:10113000FFF7C1FFE9882046FFF7B5FFF8BD31464C
:101140002046FFF79BFFE9882046FFF78EFFF8BD9A
:101150005C4908402084A18B208C3702F3261B01B8
:10116000B14313430B435849A3830840FF2138433D
:10117000013108432084E9882046FFF76EFFF8BD5F
:1011800000210180418001228280C180018173E6BB
:10119000F8B50C464988002601250746002900D1EC
:1011A0000226A288012A00D102252088238900284E
:1011B000384610D0FFF762FFE1883846FFF755FF49
:1011C00023892A4631463846FFF775FFE1883846BD
:1011D000FFF769FFF8BDFFF76EFFE1883846FFF7BC
:1011E00062FF23892A4631463846FFF747FFE188E8
:1011F0003846FFF73AFFF8BD406B3DE6806B3BE6B3
:10120000C06B39E6006C37E6002A828901D00A43B8
:1012100000E08A4382812FE681822DE60246128A0F
:1012200000200A4200D0012026E6C943018223E6BD
:101230000246138A002092890B400A40002B02D0FC
:10124000002A00D0012017E6C943018214E61143A9
:101250004030018110E6002A828901D00A4300E073
:101260008A43828108E608220029818801D011433F
:1012700000E091438180FFE50189C908C90001812F
:10128000FAE5028970239A430A430281F4E510B516
:101290000446FFF7F6FF208907210843208110BD8F
:1012A000FF8F0000FFF70000FFFB0000FFFD0000C4
:1012B000FFDF0000FFF30000FF0C0000FFEF000065
:1012C000FF5F0000FFFE0000FFF5000070B516464E
:1012D0000D46044660290CD001223146FFF7EBFE93
:1012E00029462046FFF7CDFF2089072108432081AA
:1012F00070BD01223146FFF7C1FEF1E710B5048948
:101300001B021343E4B20B432343038110BD10B50A
:101310000446FFF7F3FF2089C108C90007200143F5
:10132000702081430143218110BD10B50446FFF7B1
:10133000E5FF2089012189030843208110BD8288AF
:1013400070239A43828082880A43828094E50289CE
:10135000D208D200028102890A4302818CE5028907
:1013600080239A43028102890A43028184E570B591
:101370000689048B058CF608F6000E430C4906819D
:101380000C40FF2102310C43AA218D431901114366
:1013900029430483018470BD80220029818801D003
:1013A000114300E09143818066E54030018263E5AE
:1013B000FCFC00000448804704480047FEE7FEE7C5
:1013C000FEE7FEE7FEE7FEE7D1130008C1000008D4
:1013D00010B54E48016801221143016041684C4A32
:1013E0001140416001684B4A1140016001680122CF
:1013F00092049143016041683F221204914341608D
:10140000C16A09090901C162016BFF22543291438B
:101410000163416B4908490041630021816000F08C
:101420002EF810BD70B5394D69680C2001403A485E
:101430003A4C03D0042901D0082901D0206014E0DF
:101440006A686968012392021B04160F1940B61CD2
:10145000002907D0E96A0907090F491C00F064F860
:101460007043EBE72E484643266068682B49000628
:10147000000F091D085C2168C140216070BD1CB5CA
:101480000021224801910091026801231B041A43A4
:1014900002605B000522120204681C400094019C5B
:1014A000641C0194009C002C02D1019C9442F3D155
:1014B0000268920328D5012100911A4A1121116076
:1014C000416841604168416041683F221204914394
:1014D00041604168112212041143416001680122F8
:1014E00012061143016001688901FCD54168890831
:1014F0008900416041680222114341604168090747
:10150000890F0229FAD11CBD00911CBD00100240B8
:101510000CB8FFF8FFFFF6FE00127A002000002052
:1015200000093D000020024030B50B460146002076
:101530002022012409E00D46D5409D4205D31D46D9
:101540009540491B2546954040191546521E002DD1
:10155000F1DC30BD064C0125064E05E0E36807CC02
:101560002B430C3C98471034B442F7D3FEF7ACFD44
:10157000B4150008D415000802E008C8121F08C1FD
:10158000002AFAD170477047002001E001C1121F04
:10159000002AFBD17047000001000100000000009C
:1015A0000500000200010000000002000000080029
:1015B00000000800D41500080000002034000000DE
:1015C0007815000808160008340000200404000004
:1015D00088150008000000000000004800080048CE
:1015E0000008004800000000010203040102030497
:1015F00006070809006CDC02000000000000000083
:081600000102030406070809BA
:04000005080000C12E
:00000001FF
