:100000000C9459000C9481000C9481000C94810094
:100010000C9481000C9481000C9481000C9481005C
:100020000C9481000C9481000C9481000C9481004C
:100030000C9481000C9481000C9481000C9481003C
:100040000C94110A0C9481000C94EA070C941C087F
:100050000C9481000C9481000C9481000C9481001C
:100060000C9477020C94810000000008000201004B
:100070000003040700000000000000000102040863
:100080001020408001020408102001020408102002
:10009000040404040404040402020202020203032E
:1000A0000303030300000000250028002B00D204F6
:1000B0004C0811241FBECFEFD8E0DEBFCDBF11E04A
:1000C000A0E0B1E0E8EBF7E102C005900D92A035A9
:1000D000B107D9F722E0A0E5B1E001C01D92A63B2F
:1000E000B207E1F710E0C9E5D0E004C02197FE01B6
:1000F0000E94D40BC735D107C9F70E947A080C9427
:10010000DA0B0C9400008EEB91E00E943F0426E095
:1001100040E855E260E070E080E192E00E948507EF
:1001200064E670E080E090E00C94800AEF92FF9229
:100130000F931F93CF93DF9300D000D0CDB7DEB7DE
:1001400060910001709101018EEB91E00E945304D7
:10015000609100018EEB91E00E940004609100012B
:100160007091010144E050E08EEB91E00E94CC04DC
:100170008E010F5F1F4F7E0185E0E80EF11C8EEBB4
:1001800091E0E016F10691F00E94A703892BB9F3E4
:100190008EEB91E00E94AF03F80181938F0168E23A
:1001A00070E080E090E00E94800AE9CF0E94CF04D6
:1001B000F9804AE050E06F2D80E192E00E9427092B
:1001C00062E071E080E192E00E94C808EA804AE0C3
:1001D00050E06E2D80E192E00E94270962E071E01C
:1001E00080E192E00E94C8080B814AE050E0602F55
:1001F00080E192E00E94270962E071E080E192E0F4
:100200000E94C8081C814AE050E0612F80E192E022
:100210000E94270962E471E080E192E00E94C80830
:1002200064E071E080E192E00E94C8086F2D70E008
:10023000762F66276E0D711D072E000C880B990B0B
:100240000E94B70520E038EF4FE756E40E944305CF
:1002500020E030E048EC52E40E944306AB01BC01D0
:1002600022E030E080E192E00E940F0A62E471E057
:1002700080E192E00E94C8086FE071E080E192E0C6
:100280000E94C808612F70E0759567957595679510
:10029000F0E40F9F600D711D1124072E000C880BD8
:1002A000990B0E94B70520E038EF4FE756E40E9413
:1002B000430520E030E045E253E40E94430620E09D
:1002C00030E040E252E40E94D604AB01BC0122E0DF
:1002D00030E080E192E00E940F0A62E471E080E188
:1002E00092E00E94C80868EE73E080E090E00F9012
:1002F0000F900F900F90DF91CF911F910F91FF9072
:10030000EF900C94800A1092BD0181E08093BB01B4
:100310001092BA0161E082E10E94200B61E083E16A
:100320000E94200BE9EBF0E080818E7F808380814A
:100330008D7F808388E48093B80085E48093BC003F
:100340000895413208F043C09091BD019111FCCF56
:1003500091E09093BD012093BB012FEF20935001BA
:1003600010929501240F209394019093BC019091D9
:10037000BC01880F892B8093BC018091BA01813028
:1003800061F41092BA018091BC018093BB0080910E
:10039000BC0083FDF8CF85EC01C085EE8093BC00E6
:1003A0008091BD018130E1F380919501841710F4B3
:1003B00040919501A6E9B1E0962FFB018E2F891B94
:1003C000841718F48D918193F9CF842F089580E0DC
:1003D00008950F93413208F04AC09091BD019111E8
:1003E000FCCF32E03093BD010093BB013FEF30936F
:1003F00050011092950140939401562FA6E9B1E067
:10040000FB013E2F351B341718F431913D93F9CF82
:100410001092BC013091BC01880F832B8093BC01EA
:100420008091BA01813061F41092BA018091BC01CF
:100430008093BB008091BC0083FDF8CF85EC01C0A8
:1004400085EE8093BC00222321F08091BD01823093
:10045000D1F3809150018F3F79F08091500180322B
:1004600041F080915001803331F094E005C091E07B
:1004700003C092E001C093E0892F0F91089540914D
:100480007201262F30E0240F311D21323105DCF4BA
:100490002091BD012430C9F4FC0180E090E0861772
:1004A00058F4309172012191DC01AC58BE4FA30F7A
:1004B000B11D2C930196F3CF80917201680F609368
:1004C000720180E0089581E0089582E0089585ED4D
:1004D0008093BC008091BC0084FDFCCF1092BD01D4
:1004E000089585EC8093BC001092BD0108951F9281
:1004F0000F920FB60F9211242F933F934F935F9358
:100500006F937F938F939F93AF93BF93EF93FF93DB
:100510008091B900887F803609F49EC078F58832D2
:1005200009F45DC090F4803109F456C038F4882392
:1005300009F4F5C0883009F44FC0F5C0883109F4DA
:100540004EC0803209F45FC0EEC0803409F46AC046
:1005500058F4803309F457C0883309F0E4C080931D
:1005600050010E947102DFC0803509F44FC0883508
:1005700009F45DC0883409F0D6C0D3C0883909F4C5
:10058000C4C0A8F4883709F467C038F4883609F481
:1005900063C0803709F460C0C6C0883809F4B5C0AC
:1005A000803909F45FC0803809F0BDC05BC0803B72
:1005B00009F483C038F4803A09F466C0883A09F433
:1005C0007CC0B1C0803C09F4A4C0883C09F4A1C03F
:1005D000883B09F487C0A7C08091BC0110C09091EE
:1005E000950180919401981770F5E091950181E053
:1005F0008E0F80939501F0E0EA56FE4F8081809344
:10060000BB0085EC83C0809350018BC0E0919501C5
:1006100081E08E0F809395018091BB00F0E0EA5657
:10062000FE4F808390919501809194016BC0E09181
:10063000950181E08E0F809395018091BB00F0E0E1
:10064000EA56FE4F80838091BB0181116AC081E030
:100650008093BA0184EA5EC083E08093BD0110926A
:100660005101CFCF80915101803208F04EC0E0910E
:10067000510181E08E0F809351018091BB00F0E029
:10068000EE5AFE4F8083BDCF0E94710280915101CE
:10069000803230F4E0915101F0E0EE5AFE4F1082CA
:1006A0006091510170E0E091B601F091B70182E5EF
:1006B00091E009951092510136C084E08093BD010C
:1006C0001092730110927201E091B801F091B9019A
:1006D000099580917201811105C081E080937201BA
:1006E00010927401E091730181E08E0F8093730189
:1006F000F0E0EC58FE4F80818093BB009091730135
:1007000080917201981708F47CCF85E88093BC0033
:100710000AC085EC8093BC001092BD0104C0109209
:1007200050010E946702FF91EF91BF91AF919F919D
:100730008F917F916F915F914F913F912F910F908A
:100740000FBE0F901F90189580E090E00895809163
:10075000EE0190E02091EF01821B910908959091A4
:10076000EF018091EE01981750F4E92FF0E0E0518D
:10077000FE4F208130E09F5F9093EF0102C02FEF8A
:100780003FEFC9010895E091EF018091EE01E81774
:1007900030F4F0E0E051FE4F808190E008958FEF5B
:1007A0009FEF08950895CF92DF92EF92FF920F93FB
:1007B0001F93CF93DF937C01CB018A012091CA0163
:1007C000222389F0EB016B01C40ED51ECC15DD058B
:1007D00069F06991D701ED91FC910190F081E02DD4
:1007E000C7010995F3CF642F0E943F02C801DF9132
:1007F000CF911F910F91FF90EF90DF90CF900895D0
:10080000CF93DF931F92CDB7DEB769832091CA01E2
:100810002223D1F02091CB01203240F021E030E0C2
:10082000FC013383228380E090E015C08091CC01ED
:10083000E82FF0E0E353FE4F998190838F5F809320
:10084000CC018093CB0105C061E0CE0101960E94EE
:100850003F0281E090E00F90DF91CF910895FC017D
:100860001382128288EE93E0A0E0B0E08483958347
:10087000A683B78381E291E09183808308951092EB
:10088000EF011092EE011092CC011092CB010C946A
:10089000830181E08093CA016093ED011092CC0145
:1008A0001092CB0108950C9449040F93062F21E078
:1008B0004091CB016DEC71E08091ED010E94E90166
:1008C0001092CC011092CB011092CA010F910895A1
:1008D0004F925F926F927F92AF92BF92CF92EF92C0
:1008E000FF920F931F93CF93DF935C01F62ED42FCB
:1008F00028013901EE2021F10E944904CE2DC43097
:1009000008F0C3E0C150C0F028E0C29FC00111242C
:10091000A301920104C056954795379527958A956E
:10092000D2F7CA01B901D501ED91FC910190F08196
:10093000E02DC5010995E6CF60E0C5010E94550490
:100940004D2FD13208F040E22C2D60EF71E08F2D59
:100950000E94A1011092EF018093EE01DF91CF91EF
:100960001F910F91FF90EF90CF90BF90AF907F902D
:100970006F905F904F900895CF92EF920F931F93D7
:10098000C22EE12C00E010E098010E9468041F9143
:100990000F91EF90CF90089521E00C94BC0461E09A
:1009A0000C9455048EEB91E00C942F045058BB2707
:1009B000AA270E94EE040C9409060E94FB0538F059
:1009C0000E94020620F039F49F3F19F426F40C949B
:1009D000F8050EF4E095E7FB0C94F205E92F0E9470
:1009E0001A0658F3BA17620773078407950720F0B1
:1009F00079F4A6F50C943C060EF4E0950B2EBA2F74
:100A0000A02D0B01B90190010C01CA01A001112414
:100A1000FF27591B99F0593F50F4503E68F11A16C0
:100A2000F040A22F232F342F4427585FF3CF469551
:100A300037952795A795F0405395C9F77EF41F1673
:100A4000BA0B620B730B840BBAF09150A1F0FF0F3D
:100A5000BB1F661F771F881FC2F70EC0BA0F621F29
:100A6000731F841F48F4879577956795B795F79519
:100A70009E3F08F0B0CF9395880F08F09927EE0FAE
:100A80009795879508950E9457050C9409060E9432
:100A9000020658F00E94FB0540F029F45F3F29F060
:100AA0000C94F20551110C943D060C94F8050E942B
:100AB0001A0668F39923B1F3552391F3951B550B4F
:100AC000BB27AA2762177307840738F09F5F5F4F21
:100AD000220F331F441FAA1FA9F335D00E2E3AF060
:100AE000E0E832D091505040E695001CCAF72BD078
:100AF000FE2F29D0660F771F881FBB1F26173707C9
:100B00004807AB07B0E809F0BB0B802DBF01FF27FA
:100B100093585F4F3AF09E3F510578F00C94F205E0
:100B20000C943D065F3FE4F3983ED4F386957795A9
:100B30006795B795F7959F5FC9F7880F911D9695B3
:100B4000879597F90895E1E0660F771F881FBB1F0F
:100B5000621773078407BA0720F0621B730B840BBC
:100B6000BA0BEE1F88F7E0950895E89409C097FB4B
:100B70003EF490958095709561957F4F8F4F9F4F74
:100B80009923A9F0F92F96E9BB279395F6958795B8
:100B900077956795B795F111F8CFFAF4BB0F11F47B
:100BA00060FF1BC06F5F7F4F8F4F9F4F16C0882322
:100BB00011F096E911C0772321F09EE8872F762F58
:100BC00005C0662371F096E8862F70E060E02AF099
:100BD0009A95660F771F881FDAF7880F9695879585
:100BE00097F9089597F99F6780E870E060E00895AD
:100BF0009FEF80EC089500240A9416161706180635
:100C00000906089500240A94121613061406050610
:100C10000895092E0394000C11F4882352F0BB0FA1
:100C200040F4BF2B11F460FF04C06F5F7F4F8F4F04
:100C30009F4F089557FD9058440F551F59F05F3F3F
:100C400071F04795880F97FB991F61F09F3F79F0EE
:100C500087950895121613061406551FF2CF469570
:100C6000F1DF08C0161617061806991FF1CF8695F2
:100C70007105610508940895E894BB2766277727D6
:100C8000CB0197F908950E9456060C9409060E941C
:100C9000FB0538F00E94020620F0952311F00C9419
:100CA000F2050C94F80511240C943D060E941A06D6
:100CB00070F3959FC1F3950F50E0551F629FF001AF
:100CC000729FBB27F00DB11D639FAA27F00DB11DC8
:100CD000AA1F649F6627B00DA11D661F829F222751
:100CE000B00DA11D621F739FB00DA11D621F839FD8
:100CF000A00D611D221F749F3327A00D611D231FAE
:100D0000849F600D211D822F762F6A2F11249F57FB
:100D100050409AF0F1F088234AF0EE0FFF1FBB1FFE
:100D2000661F771F881F91505040A9F79E3F5105BD
:100D300080F00C94F2050C943D065F3FE4F3983E7E
:100D4000D4F3869577956795B795F795E7959F5F67
:100D5000C1F7FE2B880F911D9695879597F90895F9
:100D6000FC01918D228D892F90E0805C9F4F821B2A
:100D700091098F7399270895FC01918D828D9817A1
:100D800031F0828DE80FF11D858D90E008958FEF91
:100D90009FEF0895FC01918D828D981761F0828DEF
:100DA000DF01A80FB11D5D968C91928D9F5F9F739F
:100DB000928F90E008958FEF9FEF0895FC01538D7F
:100DC000448D252F30E0842F90E0821B930B541725
:100DD00010F0CF9608950197089582E498E0892B4A
:100DE00049F080E090E0892B29F00E9442088111AF
:100DF0000C9400000895FC01848DDF01A80FB11D43
:100E0000A35ABF4F2C91848D90E001968F73992740
:100E1000848FA689B7892C93A089B1898C9180642D
:100E20008C93938D848D981306C00288F389E02DEE
:100E300080818F7D80830895EF92FF920F931F939F
:100E4000CF93DF93EC0181E0888F9B8D8C8D98137D
:100E500005C0E889F989808185FD24C0F62E0B8DB7
:100E600010E00F5F1F4F0F731127E02E8C8DE812DB
:100E70000CC00FB607FCFACFE889F989808185FF9D
:100E8000F5CFCE010E94FB06F1CF8B8DFE01E80F5E
:100E9000F11DE35AFF4FF0820B8FEA89FB898081B5
:100EA000806207C0EE89FF896083E889F9898081C3
:100EB0008064808381E090E0DF91CF911F910F915A
:100EC000FF90EF900895CF93DF93EC01888D8823F6
:100ED000C9F0EA89FB89808185FD05C0A889B989A7
:100EE0008C9186FD0FC00FB607FCF5CF808185FF82
:100EF000F2CFA889B9898C9185FFEDCFCE010E94F0
:100F0000FB06E7CFDF91CF910895CF92DF92EF926A
:100F1000FF921F93CF93DF93EC016A017B01122FA5
:100F2000E889F98982E080834115514E6105710598
:100F3000B1F060E079E08DE390E0A70196010E94B6
:100F4000B20BDA01C9010197A109B109B695A795BC
:100F5000979587959C01211580E13807A8F0E889CD
:100F6000F989108260E874E88EE190E0A7019601AB
:100F70000E94B20BDA01C9010197A109B109B69526
:100F8000A795979587959C01EC85FD853083EE8527
:100F9000FF852083188EEC89FD891083EA89FB89FF
:100FA000808180618083EA89FB8980818860808379
:100FB000EA89FB89808180688083EA89FB89808156
:100FC0008F7D8083DF91CF911F91FF90EF90DF9015
:100FD000CF9008951F920F920FB60F9211242F9366
:100FE0008F939F93EF93FF93E0912002F091210262
:100FF0008081E0912602F091270282FD12C090814B
:10100000809129028F5F8F7320912A02821751F0FD
:10101000E0912902F0E0E05FFD4F958F8093290277
:1010200001C08081FF91EF919F918F912F910F903F
:101030000FBE0F901F9018951F920F920FB60F9230
:1010400011242F933F934F935F936F937F938F93CD
:101050009F93AF93BF93EF93FF9380E192E00E9441
:10106000FB06FF91EF91BF91AF919F918F917F917F
:101070006F915F914F913F912F910F900FBE0F9005
:101080001F90189580E192E00E94B00621E0892B24
:1010900009F420E0822F0895E0E1F2E01382128249
:1010A00088EE93E0A0E0B0E084839583A683B783C5
:1010B00083E391E09183808385EC90E0958784873A
:1010C00084EC90E09787868780EC90E0918B808B12
:1010D00081EC90E0938B828B82EC90E0958B848BFB
:1010E00086EC90E0978B868B118E128E138E148E69
:1010F000089508950E94BC0A0E9479080E94830006
:10110000CDEED6E00E9496002097E1F30E94ED0616
:10111000F9CFCF92DF92EF92FF920F931F93CF936D
:10112000DF936C017A018B01C0E0D0E0CE15DF05C2
:1011300081F0D8016D918D01D601ED91FC91019066
:10114000F081E02DC6010995892B11F02196EECF93
:101150007E01C701DF91CF911F910F91FF90EF901A
:10116000DF90CF9008956115710579F0FB01019032
:101170000020E9F73197AF01461B570BDC01ED91D9
:10118000FC910280F381E02D099480E090E00895C5
:101190000C94B308DC01ED91FC910190F081E02DFD
:1011A00009948F929F92AF92BF92EF92FF920F930A
:1011B0001F93CF93DF93CDB7DEB7A1970FB6F89407
:1011C000DEBF0FBECDBF7C01FA01CB0119A22230D8
:1011D00008F42AE08E010F5D1F4F822E912CA12C66
:1011E000B12CBF01A50194010E94B20BF901CA0103
:1011F000015011096A3010F4605D01C0695CD801CA
:101200006C93232B242B252B61F7B801C7010E9477
:10121000B308A1960FB6F894DEBF0FBECDBFDF9125
:10122000CF911F910F91FF90EF90BF90AF909F9043
:101230008F9008952115310541F4DC01ED91FC9169
:101240000190F081E02D642F09940C94D1089A014B
:10125000462F50E060E070E00C941A099A01AB014F
:1012600060E070E00C941A097F928F929F92AF9287
:10127000BF92CF92DF92EF92FF920F931F93CF9383
:10128000DF938C016A017B01722E9A01AB01C701C9
:10129000B6010E94AD0B882319F064E471E027C009
:1012A00046015701E894B7F82FEF3FEF4FE75FE7AC
:1012B000C501B4010E94AD0B81110DC02FEF3FEFAE
:1012C0004FE75FE7C501B4010E94500B18161CF4EC
:1012D00068E471E00CC02FEF3FEF4FE75FE4C70118
:1012E000B6010E94A80B181694F46CE471E0C801D2
:1012F000DF91CF911F910F91FF90EF90DF90CF90F2
:10130000BF90AF909F908F907F900C94B3082FEF79
:101310003FEF4FE75FECC701B6010E94500B87FD1E
:10132000E4CF20E030E0A901C701B6010E94500BD4
:1013300087FF0AC06DE2C8010E94CA08EC01F7FAF3
:10134000F094F7F8F09402C0C0E0D0E0B12C60E077
:1013500070E080E09FE37B1441F020E030E040E269
:1013600051E40E944305B394F6CFA70196010E9471
:10137000D7046B017C010E94550B4B015C012AE0F4
:10138000AB01BC01C8010E94D108C80FD91F77204A
:10139000B9F1C501B4010E94B5059B01AC01C701BB
:1013A000B6010E94D6046B017C016EE2C8010E9466
:1013B000CA08C80FD91F20E030E040E251E4C7015D
:1013C000B6010E9443064B015C010E94550B6B0164
:1013D0007C014AE050E0C8010E942E09C80FD91FC5
:1013E000B60180E090E00E94B5059B01AC01C5010B
:1013F000B4010E94D6046B017C017A947110DBCF9A
:10140000CE01DF91CF911F910F91FF90EF90DF9070
:10141000CF90BF90AF909F908F907F9008950C9445
:1014200034091F920F920FB60F9211242F933F93FE
:101430008F939F93AF93BF938091AE029091AF0231
:10144000A091B002B091B1023091AD0223E0230F20
:101450002D3720F40196A11DB11D05C026E8230FEC
:101460000296A11DB11D2093AD028093AE02909310
:10147000AF02A093B002B093B1028091B2029091FA
:10148000B302A091B402B091B5020196A11DB11DA5
:101490008093B2029093B302A093B402B093B502CA
:1014A000BF91AF919F918F913F912F910F900FBE60
:1014B0000F901F9018953FB7F8948091B2029091C9
:1014C000B302A091B402B091B50226B5A89B05C0A5
:1014D0002F3F19F00196A11DB11D3FBFBA2FA92FB3
:1014E000982F8827820F911DA11DB11DBC01CD0130
:1014F00042E0660F771F881F991F4A95D1F708951C
:101500008F929F92AF92BF92CF92DF92EF92FF9213
:101510006B017C010E945B0A4B015C01C114D10488
:10152000E104F10401F10E944F0B0E945B0ADC010F
:10153000CB0188199909AA09BB09883E9340A105E6
:10154000B10560F321E0C21AD108E108F10888EE84
:10155000880E83E0981EA11CB11CC114D104E104C3
:10156000F10419F7DBCFFF90EF90DF90CF90BF90A1
:10157000AF909F908F900895789484B5826084BDD9
:1015800084B5816084BD85B5826085BD85B5816087
:1015900085BDEEE6F0E0808181608083E1E8F0E0E7
:1015A0001082808182608083808181608083E0E816
:1015B000F0E0808181608083E1EBF0E080818460F5
:1015C0008083E0EBF0E0808181608083EAE7F0E0F7
:1015D000808184608083808182608083808181605B
:1015E00080838081806880831092C1000895833059
:1015F00081F028F4813099F08230A1F0089587308D
:10160000A9F08830B9F08430D1F4809180008F7DCA
:1016100003C0809180008F7780938000089584B507
:101620008F7702C084B58F7D84BD08958091B0000E
:101630008F7703C08091B0008F7D8093B0000895B4
:101640001F93CF93DF93282F30E0F901E859FF4F24
:101650008491F901E458FF4FD491F901E057FF4F0D
:10166000C491CC23C1F0162F81110E94F70AEC2FF0
:10167000F0E0EE0FFF1FEC55FF4FA591B4919FB71F
:10168000F894111104C08C91D095D82302C0EC912C
:10169000DE2BDC939FBFDF91CF911F9108950895BA
:1016A0000E94840B08F481E008950E94220688F0CD
:1016B0009F5798F0B92F9927B751B0F0E1F0660F16
:1016C000771F881F991F1AF0BA95C9F714C0B13057
:1016D00091F00E943C06B1E008950C943C06672FFF
:1016E000782F8827B85F39F0B93FCCF38695779586
:1016F0006795B395D9F73EF490958095709561956F
:101700007F4F8F4F9F4F0895990F0008550FAA0BD9
:10171000E0E8FEEF16161706E807F907C0F0121604
:101720001306E407F50798F0621B730B840B950B07
:1017300039F40A2661F0232B242B252B21F408955C
:101740000A2609F4A140A6958FEF811D811D0895F9
:101750000E94840B08F48FEF08950E94840B880B7D
:10176000990B0895A1E21A2EAA1BBB1BFD010DC007
:10177000AA1FBB1FEE1FFF1FA217B307E407F50741
:1017800020F0A21BB30BE40BF50B661F771F881F1D
:10179000991F1A9469F760957095809590959B01B3
:1017A000AC01BD01CF010895EE0FFF1F0590F4912C
:0817B000E02D0994F894FFCF2D
:1017B8002700090068756D69646974793A200054D6
:1017C800656D70657261747572653A20000000007D
:1017D800000004D303A403D203A703AF03C3030089
:1017E8000000001C078908DE066307B006CA06BCAD
:1017F800060D0A006E616E00696E66006F766600FF
:00000001FF
