:020000040800F2
:1000000058040020F1260008C9080008CB080008A1
:1000100000000000000000000000000000000000E0
:10002000000000000000000000000000CD080008F3
:100030000000000000000000CF080008D108000800
:1000400003270008032700080327000803270008E8
:1000500003270008E708000803270008E90800084C
:1000600003270008032700080327000803270008C8
:1000700003270008032700080327000803270008B8
:1000800003270008032700080000000003270008DA
:100090000327000803270008032700080327000898
:1000A000032700080327000803270008D3080008D7
:1000B00003270008000000000327000800000000DC
:1000C0000348854602F0F8FF00480047D5000008C5
:1000D0005804002008B5002000F094FF012000F033
:1000E00091FF0121002000F0C4FF00F059F800F05A
:1000F00065FE00F08FFD214C01210722C902204638
:1001000002F072FA0722A114204602F06DFA00F004
:10011000AFFC00F0EFF800F091F919A000F02BFA15
:100120000121002000F0BEF918A000F024FA1A49BD
:10013000200501F0DEF9194C2068C008400000F0ED
:10014000BBFB2068C00800F0B7FB0421684600F044
:10015000FDFB0421684600F046FC02F081FE00F041
:1001600020FF0421684600F056FC02F079FE00F002
:10017000F3FE00F087FD00F04AFAE2E700240140B8
:1001800054657374206C696E652031005465737416
:10019000206C696E65203200307500004000002040
:1001A000F0B589B0102002F04DF80121480502F0A9
:1001B000EFF80121880402F0D9F8684601F007FD44
:1001C000FF200130009001256846057100248471EC
:1001D000C4710326FC4F46716946384601F0BFFCE6
:1001E00001220621384601F026FD0122072138466A
:1001F00001F021FD684601F0EAFC02216846017128
:10020000C02000906846C5718571467169463846C0
:1002100001F0A5FC02A801F068FD0894079403947E
:10022000049405940694E948E94C029002A92046FA
:1002300001F02DFD0121204601F062FD09B0F0BD65
:10024000F8B501242403E1000126E24F0546884267
:1002500002D00CE0641E08D32946DD4801F088FE78
:100260000028F7D1F8BD641E01D23E60F8BD2946D2
:10027000D74801F07DFE0028F5D0F8BDF8B5054659
:100280000120C003FFF7DCFF01204003D04E0090A7
:10029000002301227621304601F0FAFD0220FFF70B
:1002A000CFFF0021304601F056FE4020FFF7C8FF87
:1002B00009208002012300905B060122762130464E
:1002C00001F0E6FD0420FFF7BBFF304601F045FEDC
:1002D00004462020FFF7B4FF2020F061002D03D05A
:1002E000012D04D02046F8BDE009C001F8BD60062C
:1002F000400EF8BDF8B5FF20B34C0130A0617D265B
:10030000B54D76013146286802F0ACFA00F0D4FA17
:10031000A003A0613146286802F0A4FA00F0CCFAEC
:100320000020FFF7ABFF0028FAD10120C003FFF740
:1003300087FF01204003A64C030300900A22762188
:10034000204601F0A5FD0220FFF77AFF002120469C
:1003500001F001FE0220FFF773FF2521204601F086
:10036000FAFD0220FFF76CFF0721204601F0F3FDA4
:100370000220FFF765FF0821204601F0ECFD022076
:10038000FFF75EFF4021204601F0E5FD0220FFF768
:1003900057FFA821204601F0DEFD0220FFF750FFA5
:1003A0002421204601F0D7FD0220FFF749FF0C2150
:1003B000204601F0D0FD0220FFF742FF0621204633
:1003C00001F0C9FD0220FFF73BFF0221204601F0AA
:1003D000C2FD2020FFF734FF2021204601F0CFFD91
:1003E000F8BD38B505460020FFF748FF0028FAD1D0
:1003F0000120C003FFF724FF01204003744C0303D6
:10040000009002227621204601F042FD0220FFF7F3
:1004100017FF0021204601F09EFD0220FFF710FF8C
:100420002946204601F097FD2020FFF709FF2021F3
:10043000204601F0A4FD38BD0220D2E738B5502493
:100440000220FFF7CEFF0020FFF718FF0028FAD1A7
:100450000120C003FFF7F4FE012040035C4D0303BD
:100460000090621C7621284601F012FD0220FFF761
:10047000E7FE4021284601F06EFD641E0220FFF7D2
:10048000DFFEA021284601F066FD641EF6D2202082
:10049000FFF7D6FE2021284601F071FD0220FFF76C
:1004A000A0FF38BD890108188030C0B299E738B57F
:1004B00005460020FFF7E2FE0028FAD10120C00324
:1004C000FFF7BEFE01204003414C030300900222CF
:1004D0007621204601F0DCFC0220FFF7B1FE40212E
:1004E000204601F038FD0220FFF7AAFE29462046EB
:1004F00001F031FD2020FFF7A3FE2021204601F06E
:100500003EFD38BD38B50020FFF7B8FE0028FAD10F
:100510000120C003FFF794FE012040032C4C009003
:10052000002301227621204601F0B2FC0220FFF7D1
:1005300087FE4021204601F00EFD4020FFF780FE9F
:1005400009208002012300905B06012276212046CB
:1005500001F09EFC0420FFF773FE204601F0FDFC35
:1005600005462020FFF76CFE2020E061284638BDBC
:10057000802108439BE7F8B50546002400E0641C91
:100580000178401C0029FAD1002C39D00020FFF757
:1005900075FE0028FAD10120C003FFF751FE0120AB
:1005A00040030090601C0A4EC2B201235B06762114
:1005B000304601F06DFC0220FFF742FE402130463C
:1005C00001F0C9FC802712E0000400480A03332030
:1005D0000054004000000020400000200220FFF7EF
:1005E0002FFE2978304639436D1C01F0B4FC641E9F
:1005F000F4D22020FFF724FE2021304601F0BFFC7A
:10060000F8BD10B5FFF77EFF4006400E10BD00B5E7
:1006100087B0FFF713FF45480068002809D001287C
:100620002BD0022854D000210846FFF73BFF40A002
:1006300062E04348006802F0C2FB0146684600F0F1
:1006400022F94048006802F0BAFB014603A800F016
:100650001AF900210846FFF725FF3BA0FFF78BFFA3
:1006600000210C20FFF71EFF6846FFF784FF0121E1
:100670000020FFF717FF37A022E03948006802F09A
:100680009EFB0146684600F0FEF83648006802F01E
:1006900096FB014603A800F0F6F800210846FFF794
:1006A00001FF31A0FFF767FF00210C20FFF7FAFEE2
:1006B0006846FFF760FF01210020FFF7F3FE2DA041
:1006C000FFF759FF01210C20FFF7ECFE03A813E010
:1006D0002B48006802F073FB0146684600F0D3F82F
:1006E00000210846FFF7DEFE26A0FFF744FF0021A9
:1006F0000C20FFF7D7FE6846FFF73DFF07B000BDAF
:1007000010B5234C206800280BD0002000F094FC8A
:10071000FFF746FDFFF7EEFDFFF779FF00202060B1
:1007200010BD002000F091FC10BD0000080000206A
:100730004D6F6465204572726F723A2000000000B0
:10074000100000202000002057616E742054656D59
:10075000703A20004375722054656D703A20000095
:10076000140000201C00002057616E742048756D35
:100770003A2000004375722048756D3A2000000051
:1007800018000020426162792054656D703A2000A3
:100790000000002043484169012252041143416195
:1007A0000921C9060A680523DB041A430A604A6A5C
:1007B000FF2311331A434A628169012292031143D4
:1007C0008161FF213848A13181810D210160002123
:1007D0004160816070473449CA691206FCD53249CC
:1007E00020310881704700B5034608E00A2802D18D
:1007F0000D20FFF7F0FF18785B1CFFF7ECFF18786F
:100800000028F3D100BD2848C169090703D5016A52
:10081000082211430162C1698906FCD522482030B3
:100820008088C0B2704700B50346FFF7ECFF187030
:100830000D2801D05B1CF8E70020187000BD0EB534
:100840001AA103C9009001911AA00068029068469D
:10085000FFF7C9FF02A8FFF7C6FF0EBDF8B50F46A8
:1008600004460A263846314602F012F80D46F74291
:1008700004DC01462046FFF7F1FF04463020401B10
:100880002070601CF8BD10B50446002903DA2D2243
:100890000270601C00E04942FFF7E0FF0021017098
:1008A000204610BD00100240003801401B5B324A58
:1008B000000000001B5B660008B50090002801DD09
:1008C000401EFAE708BD00007047FEE7704770471A
:1008D00070471C48C069800604D51A4820308088BB
:1008E000194908707047704710B5102001F0FAF8E8
:1008F000002804D000F034F9102001F0F0F8202096
:1009000001F0F0F8002804D000F04FF9202001F0A9
:10091000E6F8402001F0E6F8002805D0012000F0BC
:100920009DFB402001F0DBF8802001F0DBF800287F
:1009300007D0012000F092FB00F0FEF8802001F0CB
:10094000CEF810BD0038014004000020F8B50126A3
:100950000446F6033046FFF773FCB01007033C4D26
:1009600000903B4600224E21284601F091FA2020BB
:10097000FFF766FC2021284601F001FB3548502195
:10098000006801F06FFFFFF797FF3046FFF758FC54
:100990000920800200903B4604224E21284601F0A7
:1009A00077FA0420FFF74CFC284601F0D6FA2070B5
:1009B0000420FFF745FC284601F0CFFA60700420C0
:1009C000FFF73EFC284601F0C8FAA0700420FFF7AC
:1009D00037FC284601F0C1FAE0702020FFF730FC18
:1009E0002020E861F8BD10B50178407809020818A8
:1009F00002F0DEF902F020FA0022174B02F04AF969
:100A00000022164B02F0DEF802F02AFA14490860C0
:100A100002F012FA10BD10B58178C0788901800803
:100A2000081802F0C5F902F007FA00220A4B02F09A
:100A300031F900220B4B02F0C5F800220A4B02F0FC
:100A4000B3F802F00DFA0949086002F0F5F910BD9B
:100A5000005400404000002000FFCF4000005940FB
:100A60001C00002000A06440000044402000002042
:100A7000F0B5012185B0084601F081FC0121480450
:100A800001F074FC00246846047184711020009009
:100A900002256846C571032609274671FF06694687
:100AA000384601F05CF8684604718471202000909B
:100AB0006846C57146716946384601F050F8684687
:100AC00004718471402000906846C5714671694682
:100AD000384601F044F86846047184718020009023
:100AE0006846C57146716946384601F038F80421F8
:100AF000002001F0C7FC0521002001F0C3FC062105
:100B0000002001F0BFFC0721002001F0BBFCF02019
:100B1000029001256846857304730821417302A879
:100B200000F096FF0721684601744474857404A898
:100B300001F03CFA05B0F0BD10B52E490868401C24
:100B40000860022801DD00200860FFF760FD2A48E8
:100B5000FF219131006801F085FEFFF7ADFE10BD69
:100B600010B524487F210068C905002802D001285B
:100B700010D106E0214C206801F09EFE2049206043
:100B800005E0204C206801F097FE1F492060884254
:100B900000DD2160FFF73BFD1748FF219131006820
:100BA00001F060FEFFF788FE10BD10B511487F21EF
:100BB0000068C905002802D0012810D106E00F4CBA
:100BC000206801F0CAFE1149206005E00D4C206844
:100BD00001F0C3FE0E492060884200DA2160FFF771
:100BE00016FD0548FF219131006801F03BFEFFF73B
:100BF00063FE10BD0800002040000020100000200F
:100C000000001842140000200000A0420000C04173
:100C10000000204270B5012188B0480201F0AFFB0E
:100C20000121C80401F0A2FB0220009003256946BF
:100C3000524E0D710024CC71304600F090FF04201C
:100C4000009069460D71CC71304600F088FF69460E
:100C500002940C73049406940794494C02A920460C
:100C600001F042FC204601F0E2FC0121204601F0A7
:100C700056FC444D2046294601F017FD0028F9D0C6
:100C800008B070BDF8B507203F4D40073F4902F05E
:100C90003FFB00223E4B01F095FF02F0E1F8384C9B
:100CA0000746204601F0DFFC0421204601F0FDFC50
:100CB0000028F9D0204601F0DBFC0646042120463E
:100CC00001F0F3FC0028F9D0204601F0D1FC00909F
:100CD0000821204601F0E9FC0028F9D0304602F056
:100CE00067F82C4E314601F07DFE294601F03DFEAD
:100CF00004460146284601F030FE054626492046B6
:100D000001F033FE294601F06DFE394601F06AFE1E
:100D100002F092F802F03AFC02460B4600201F490E
:100D200001F0B8FF02F09CF802F086F81C4A1D4B57
:100D300001F03AFF02F094F802F07EF804460D4606
:100D4000009802F035F8314601F04CFE02F074F8DC
:100D50000022154B01F028FF144A154B01F09AFFB1
:100D600003225207134B01F02DFF22462B4601F0C0
:100D700077FE02F075F810490860F8BD00080048D9
:100D800000240140010000013333534055902AC034
:100D9000006AF84000F07F450050C34700F0AE40C5
:100DA00066666666661271400000E03F52B81E85B6
:100DB000EB51C83F66660A401800002070B501215B
:100DC00098B0084601F0E4FA0121480401F0CEFA97
:100DD000022610A90E730324129609254C73ED0602
:100DE00012A9284600F0BBFE02220121284600F08D
:100DF00022FF10A90E75042014904C7514A92846E2
:100E000000F0ADFE02221146284600F014FF10A9A2
:100E10000E77082016904C7716A9284600F09FFE02
:100E200002220321284600F006FF002410A98C802E
:100E30006946CC878C876648ED0010900FA928463C
:100E400000F0BAF960206946088001224A800294C5
:100E50008C818882CA8207940C8408854A850C9408
:100E60008C86284600F07DFA05A9284600F0B0FAE5
:100E70000AA9284600F0E3FA0121284600F00DFAFD
:100E800018B070BDF8B5544C52480127534D544E1C
:100E9000BF0720600146384600F02BFB192189016D
:100EA000286801F0DFFCFFF707FD20689638206016
:100EB000B042EFD80021384600F01BFBF8BDF8B572
:100EC000454C47480127454D464EBF072060014627
:100ED000384600F00EFB19218901286801F0C2FC98
:100EE000FFF7EAFC206896302060B042EFD3002183
:100EF000384600F0FEFAF8BDF8B5374C01272168F6
:100F0000BF07364E054688420DD31DE0384600F037
:100F1000F0FA19218901306801F0A4FCFFF7CCFC3C
:100F20002068963820602168A942EFD80FE0384643
:100F300000F0DFFA19218901306801F093FCFFF716
:100F4000BBFC2068963020602168A942EFD30021C5
:100F5000384600F0CEFAF8BD10B51F49496801F0D7
:100F6000FCFC01F069FF00221F4B02F0B9FC0122DA
:100F700001F008FF00221D4B01F072FD00221C4B06
:100F800001F020FE01F034FF1A49884204DC0028F9
:100F900001DA002100E001460120800700F0A7FAF5
:100FA00010BD10B50C49896801F0DBFC0A49124AF2
:100FB0000968904201DA0A4803E0104A904205DAD3
:100FC0000F48814201D0FFF797FF10BD0548F8E7B1
:100FD000FFA50E00306F01000C0000204000002033
:100FE0003075000000770100000008400000344028
:100FF00000C0C240F07E0E000000A0400000204172
:1010000020CB00007CB504468500434801214059AF
:1010100001F0ACF9404960000A39085A00900120FB
:101020006946087100208871C871032048713B48E7
:10103000405900F094FD7CBD374A41000A3A515AAC
:10104000364A8000105881617047334A41000A3A9D
:10105000515A324A80001058018570472F4982004A
:1010600089588A8A2C4B40000A3B185A42408A828F
:101070007047F3B505468700274885B0001FC05963
:10108000012101F073F90121084601F078F90026E9
:1010900068460673C67320486C001438005B0290E3
:1010A0001E4802A9001FC05900F059FD06980128EA
:1010B00023D119480E38015D801E005D01F0E2F970
:1010C00015481238005B009068460671002D01D06B
:1010D000082000E00C2069464871012568468571AA
:1010E00000F0B6FC0C480C38015D68460174032121
:1010F0004174857404A800F059FF07B0F0BD064A9A
:1011000010B54100143A515A044A8000121F105879
:1011100000F073FD10BD00003843000828000020D7
:10112000F84910B5884202D10121C41430E00121F0
:101130008907884206D10121084601F044F90021BF
:10114000012008E0F049884208D10121022001F085
:101150003AF90021022001F036F910BDEB4988422E
:1011600006D10121102001F02EF900211020F2E714
:10117000E749884207D184150121204601F023F96F
:1011800000212046E7E7E349884209D101210C0408
:10119000204601F00FF90021204601F00BF910BDA7
:1011A000DD49884202D101214C04F1E7DB49884244
:1011B000F5D101218C04EBE710B50288D14B9842A0
:1011C00006D00124A407A04202D0CF4CA04203D1F4
:1011D0007024A2434C882243CC4CA04203D0D04C74
:1011E00022400C89224302804A68C2620A88028532
:1011F000984208D0C74A904205D0C74A904202D0D0
:10120000C64A904201D1897A01860121818210BDAE
:101210000021C94341600021018001814180817228
:101220007047018582827047028870239A430A437F
:101230000280704741627047C1627047406A7047E0
:10124000008D704702220029018801D0114300E07F
:1012500091430180704704220029018801D0114385
:1012600000E091430180704780220029018801D06D
:10127000114300E0914301807047028808239A439C
:10128000028002880A43028070470288A44B1A40F9
:10129000028002880A43028070470029018802D038
:1012A0000122114301E0490849000180704710B54F
:1012B0000A884B88CC881A438B8823431A430B89AE
:1012C0001A434B8989891A430A434030828010BDF2
:1012D0000021018041808180C18001814181818123
:1012E000704740300029818803D00122D203114386
:1012F00001E04904490C8180704730B5028C5208E6
:1013000052000284038C8288048B7025AC43A408AD
:101310000D88A40025430224A3438C891C434B88D9
:101320002343784CA04208D07A4CA04205D07A4C96
:10133000A04202D0794CA0420DD10824A343CC890D
:101340001C4304239C438B882343754C22400C8A06
:1013500014434A8A22438280058389684163038457
:1013600030BD70B5028C10239A430284048C8288AD
:10137000038B6C4D2B400D782D062D0C1D43202327
:101380009C438B891B051E0C4B8826431B051B0C9D
:101390005C4C3343A04215D18024A343CC8924055F
:1013A000240C1C4340239C438B881B051B0C2343AC
:1013B0005D4C22400C8AA404240C14434A8A9204F3
:1013C000120C22438280058389688163038470BD87
:1013D00030B5028C554B1A400284038C8288848B72
:1013E0007025AC43A4080D88A4002543504C23402D
:1013F0000C7B2406240C1C438B781B061B0C2343FC
:10140000404CA04215D14B4C23408C7B2406240C2D
:101410001C43494B1C400B791B061B0C2343474CB8
:1014200022400C8A2405240C14434A8A1205120C0B
:101430002243828085838968C163038430BD30B5CF
:10144000028C3F4B1A400284048C8388828B354D7A
:101450002A400D782D062D0C15433A4A14400A7B7C
:101460001207120C22438C782407240C1443254ABB
:10147000904205D1344A13400A8A9205120C134354
:101480008380858389680164048430BD00210180E4
:101490004180818081608181C18101824182704768
:1014A00030B5034618330124058C8C40A5430584D0
:1014B000002910D008290ED0091F0804400CC018BC
:1014C000016807231B039943016001681206120C8F
:1014D0001143016030BD4808C0180168702399436A
:1014E00001600168F4E74163704781637047C1633D
:1014F000704701647047028B70239A430A4302834A
:1015000070470000002C0140000400400010004023
:1015100000200040004001400044014000480140DC
:10152000FFFC0000FF8C0000FFF30000FFFE000046
:10153000FFFD0000FFF70000FFFB0000FFCF0000F1
:10154000FFEF0000FFDF0000FFBF0000028BF64B43
:1015500009021A4011430183D2E7828B70239A4318
:101560000A438283CCE7828BEF4B09021A40114376
:101570008183C5E70029818802D00122114301E05F
:10158000490849008180BBE7028B08239A430A433C
:101590000283B5E7028BE54B09021A401143018330
:1015A000AEE7828B08239A430A438283A8E7828BA3
:1015B000DE4B09021A4011438183A1E7028B042309
:1015C0009A430A4302839BE7028BD94B09021A40D4
:1015D0001143018394E7828B04239A430A43828355
:1015E0008EE7828BD24B09021A401143818387E731
:1015F000028B80239A430A43028381E7028B5204C1
:10160000520C0902114301837AE7828B80239A43AB
:101610000A43828374E7828B5204520C09021143FD
:1016200081836DE7028C02239A430A43028467E7B1
:10163000028C08239A430A43028461E7028C202328
:101640009A430901114301845AE7028C80239A438B
:1016500009011143018453E7028CB64B09021A4079
:10166000114301844CE7028CB04B09021A4011432C
:10167000018445E7028CB04B09031A4011430184F1
:101680003EE7028908239A43028102890A430281C4
:1016900036E710B50123048C8B409C430484038CF3
:1016A0008A401343038410BD10B50423048C8B407F
:1016B0009C430484038C8A401343038410BD04229A
:1016C0000029818801D0114300E09143818017E710
:1016D000828B9A4B1A408283828B09020A4382834F
:1016E0000EE7828B0C239A438283828B0A43828388
:1016F00006E7028B914B1A400283028B09020A43D0
:101700000283FDE6F0B5048C1026B4430484058BF7
:10171000048C8B4F1B0309013D402B4312021A43DB
:10172000A0239C430C43344302830484F0BD028B0A
:101730000C239A430283028B0A430283E0E670B5CE
:10174000048C640864000484058B048C1B0113431F
:10175000F3260A22B54394432B430C4301210C4347
:101760000383048470BDF8B5044608884E888A88CF
:101770000B890D4600281DD0042824D00828208C71
:101780002AD0704908402084A08B278C31036C4EEE
:10179000120230400243180310436B4AA0831740E3
:1017A0000F43012109030F432784E9882046FFF7EF
:1017B0008FFFF8BD31462046FFF7C1FFE98820467C
:1017C000FFF7B5FFF8BD31462046FFF79BFFE988DC
:1017D0002046FFF78EFFF8BD5C4908402084A18BAE
:1017E000208C3702F3261B01B14313430B435849A6
:1017F000A3830840FF213843013108432084E9884E
:101800002046FFF76EFFF8BD0021018041800122D4
:101810008280C180018173E6F8B50C4649880026B4
:1018200001250746002900D10226A288012A00D1FD
:101830000225208823890028384610D0FFF762FF50
:10184000E1883846FFF755FF23892A463146384656
:10185000FFF775FFE1883846FFF769FFF8BDFFF72E
:101860006EFFE1883846FFF762FF23892A4631463A
:101870003846FFF747FFE1883846FFF73AFFF8BDE3
:10188000406B3DE6806B3BE6C06B39E6006C37E6AB
:10189000002A828901D00A4300E08A4382812FE630
:1018A00081822DE60246128A00200A4200D00120E1
:1018B00026E6C943018223E60246138A0020928964
:1018C0000B400A40002B02D0002A00D0012017E66E
:1018D000C943018214E611434030018110E6002A19
:1018E000828901D00A4300E08A43828108E6082207
:1018F0000029818801D0114300E091438180FFE5F8
:101900000189C908C9000181FAE5028970239A4357
:101910000A430281F4E510B50446FFF7F6FF20897B
:1019200007210843208110BDFF8F0000FFF7000052
:10193000FFFB0000FFFD0000FFDF0000FFF30000E1
:10194000FF0C0000FFEF0000FF5F0000FFFE000043
:10195000FFF5000070B516460D46044660290CD010
:1019600001223146FFF7EBFE29462046FFF7CDFF67
:10197000208907210843208170BD01223146FFF7ED
:10198000C1FEF1E710B504891B021343E4B20B4317
:101990002343038110BD10B50446FFF7F3FF2089F0
:1019A000C108C90007200143702081430143218100
:1019B00010BD10B50446FFF7E5FF2089012189031A
:1019C0000843208110BD828870239A4382808288D8
:1019D0000A43828094E50289D208D20002810289FA
:1019E0000A4302818CE5028980239A43028102899D
:1019F0000A43028184E570B50689048B058CF608DC
:101A0000F6000E430C4906810C40FF2102310C43C5
:101A1000AA218D431901114329430483018470BD18
:101A200080220029818801D0114300E09143818008
:101A300066E54030018263E5FCFC00003248314934
:101A40000160002141608160C1603049416170479F
:101A500010B583792C490268002B26D00B6893437C
:101A60000B604A6803689A434A6002795218136807
:101A70000468234313608A6803689A438A60CA68CB
:101A800003689A43CA604279102A05D051180A683F
:101A9000006802430A6010BD8A6803681A438A60BE
:101AA000CA6800680243CA6010BD00794018016826
:101AB0009143016010BD0021016001710C2242714F
:101AC0008171704710490A6902430A6170470E4AE2
:101AD0000146526900200A4200D0012070470A499D
:101AE00048617047084A01461368002052690B405C
:101AF0000A4202D0002B00D0012070470249486101
:101B0000704700000000940F00040140FFFF6B00CD
:101B1000092110B5C906884202D101214C0404E014
:101B20004D49884209D101210402204600F039FCC8
:101B30000021204600F035FC10BD4849884202D102
:101B400001210402F1E74649884202D101210C0536
:101B5000EBE744498842EFD101218C05E5E7F0B578
:101B60000022012423460D6893401D409D422AD146
:101B70000D79012D01D0022D12D187685500032661
:101B8000AE40B74387604E79AE4085682E4386608D
:101B900085889D43858085888B7993401D4385800A
:101BA000066855000323AB409E4306600E79076824
:101BB000AE403E430660C6689E43C660CB79AB40EC
:101BC000C5682B43C360521C102ACBD3F0BD2649F5
:101BD000016000210171022242718171C17170475F
:101BE000012208B512040A430092C261C161009942
:101BF000C161C169C069009008BD0246128A002017
:101C00000A4200D001207047008A70470246928A3B
:101C100000200A4200D001207047808A704781610D
:101C2000704701857047002A01D0816170470185A6
:101C30007047818270474B07DB0E9A40C90810B588
:101C400089000818016A0F249C40A1430162016ABF
:101C50001143016210BD0000000400480008004864
:101C6000000C004800140048FFFF0000C94910B5EF
:101C7000884202D101214C0501E001218C0520465A
:101C800000F0A1FB0021204600F09DFB10BD10B527
:101C900002685208520002600268BF4B8C681A400A
:101CA00024024B681443234303600F230A681B0676
:101CB0009A430261026801231A4302600022826093
:101CC000C2600B698A691A43826082680123DB0360
:101CD0001A438260CA680368134303604268AF4BCB
:101CE00049691A401143416010BD00210160416003
:101CF0008160C1600122D20301614261816170474C
:101D00000029016802D00122114301E0490849007D
:101D100001607047012252030029016801D011437C
:101D200000E0914301607047002A026801D00A4335
:101D300000E08A43026070470122520400290168D2
:101D400001D0914300E011430160704701229204E9
:101D50000029016801D0114300E091430160704700
:101D60000122D2030029C16801D0114300E0914350
:101D7000C160704710B5C368894C52072340FE24E8
:101D80002140520D11431943C16010BD0122D204FC
:101D90000029016801D0114300E0914301607047C0
:101DA000012212040029016801D0114300E091438F
:101DB0000160704742688905920A9202890D1143B9
:101DC000416070470122D2020029416801D01143CD
:101DD00000E09143416070470122520600294168AA
:101DE00001D0114300E09143416070470122120687
:101DF0000029416801D0114300E0914341607047E0
:101E00004268FF231B049A43090411434160704751
:101E1000012292020029416802D0114341607047BB
:101E20009143FBE7012252030029416801D011438D
:101E300000E091434160704701229203002941680C
:101E400001D0114300E09143416070470122120329
:101E50000029416801D0114300E09143416070477F
:101E60000122D2030029416801D0914300E01143CF
:101E7000416070478069FE21000C084070470146B0
:101E80008969002001221204114200D0901170478C
:101E900070B5049D44688905890D1204414E1143B3
:101EA0001943344029432143416070BD012292050A
:101EB0000029016801D0114300E09143016070479F
:101EC0000122D2030029416901D0114300E091436E
:101ED000416170470029416903D00122D2071143B3
:101EE00001E04900490841617047012212030029BD
:101EF000416901D0114300E091434161704742695B
:101F00000905120B1203090D114341617047426923
:101F1000254B09051A400909114341617047012207
:101F2000D2050029016801D0114300E0914301600E
:101F30007047012292060029016801D0114300E098
:101F4000914301607047006AC0B2704708B54018FD
:101F50000090006808BD81627047406AC0B2704757
:101F6000002A026801D00A4300E08A4302607047F9
:101F70000246926900200A4200D001207047C161E8
:101F800070470246926900200A4200D00120704743
:101F9000C161704700540040FFE0CF00FF7FFF07A2
:101FA00001F8FFFF009800FCFFFF00F030B58378D8
:101FB00001210278002B15D09408174BA400E418D7
:101FC00023689207D50EFF22AA40934342789207D6
:101FD000120EAA401A4322600078C006C00E81404B
:101FE0000E4804E0D006C00E81400C4880300160ED
:101FF00030BD0B4A0029116901D0014300E0814343
:1020000011617047042207490428086902D09043EF
:10201000086170471043FBE700E400E000E100E0E6
:1020200000ED00E000E000E0F74801680122114304
:1020300001604168F54A114041600168F44A11406D
:1020400001600168012292049143016041683F22CE
:10205000120491434160C16A09090901C162016B1F
:10206000FF22543291430163416B490849004163A7
:10207000002181607047E44900228A7088707047AF
:1020800003460020E0495A090CD0012A0CD0022A4C
:102090000CD0496BDA06D20E012393400B4200D0DC
:1020A000012070470968F5E7096AF3E7496AF1E733
:1020B00018B500200524240200901120FFF7E0FF4E
:1020C0000099491C0091A14201D00028F5D01120AF
:1020D000FFF7D6FF002800D0012018BDCA4A1168BA
:1020E000F8239943C000084310607047C649002890
:1020F000086802D00122104301E040084000086057
:102100007047C14A516BF8239943C000084350639C
:102110007047BD490028486B02D00122104301E0FE
:102120004008400048637047B74904220028486BC4
:1021300001D0904300E0104348637047B2490A6AF7
:10214000520852000A620A6A04239A430A620A6A1F
:1021500002430A627047AC490A6A18239A430A622A
:102160000A6A02430A627047A7490028486A02D0F7
:102170000122104301E0400840004862704710B55A
:10218000A14A53683D242404A34353605368084381
:102190000343536010BD01229B49120600280868C2
:1021A00001D0104300E0904308607047964AD16A1E
:1021B000090909010143D162704701229249D20401
:1021C0000028086801D0104300E090430860704781
:1021D0008D49C87170478C4A51688908890001434C
:1021E00051607047884840680C2108407047864A13
:1021F0005168F0239943014351607047824A516806
:1022000007231B0299430143516070477E494A6886
:1022100001239B039A434A604A6883B21A434A6087
:102220000A6B8B159A430A630A6B000C02430A631C
:10223000704775490A6B40239A430A630A6B02434D
:102240000A63704770490A6B10239A430A630A6B4A
:1022500002430A6370476C490A6B920892000A6352
:102260000A6B02430A637047F8B5674D0446686815
:102270000C21684E084003D0042801D0082801D062
:10228000266012E0696868680122890212040F0F53
:102290001040BF1C00281CD0E86A0107090F304617
:1022A000491C00F0DFFA7843206068685A4B00064A
:1022B000000F1A5C20680146D14061606A685205CF
:1022C000520F9A5CD140A1602A6BD20505D4534AC3
:1022D00009E0534847432760E7E76A68520401D49E
:1022E0004A0800E08A08E2602A6B53064D4A03D48C
:1022F0004C4B1233236100E022612B6BDB0601D4CF
:10230000666100E060612B6B9B070FD0296B89072A
:10231000890F01290CD0286B8007800F022809D073
:10232000286BC043800700D1A661F8BDA161F8BD4C
:10233000A061F8BDA261F8BD33490A6A02430A628E
:10234000704731490028374A086A01D0104300E03D
:1023500090430862704701222B4912040028086A42
:1023600001D0104300E0904308627047264A0029DC
:10237000516901D0014300E0814351617047224A15
:102380000029916901D0014300E0814391617047C8
:102390001D4A0029D16901D0014300E08143D16188
:1023A0007047194A0029916A01D0014300E0814336
:1023B00091627047144A0029D16801D0014300E0BE
:1023C0008143D1607047104A0029116901D001434F
:1023D00000E08143116170470B4A0029517A01D016
:1023E000014300E08143517270470748416A01226E
:1023F0001206114341627047034A01469268002069
:102400000A4200D001207047001002400CB8FFF8CB
:10241000FFFFF6FE00127A0030000020809FD500FA
:1024200000093D000080000001498872EBE70000D0
:1024300000100240244801688907890F01600021CB
:102440008160C160016141618169821511438161CF
:1024500070471D4A1168890889000143116070475F
:10246000194A0029116801D0014300E0814311603D
:102470007047154A0029116801D0014300E08143EB
:10248000116070478A07130F10B50F229A408C080D
:102490000D49A40061188C6894438C608A68984048
:1024A00002438A6010BD08498A6902438A61704705
:1024B000054900208969C90500D5012070470249F6
:1024C0008A6902438A61704700000140854910B55E
:1024D000884208D1441501212046FFF76BFF0021F7
:1024E0002046FFF767FF10BD30B5C3687E4A8C6891
:1024F00013400A680D792243CC686D032C432243B4
:102500000C69496922430A431A43C26030BD002165
:10251000016001718160C160016141617047002902
:10252000816801D0012200E00222114381607047DE
:10253000002A026901D00A4300E08A430261704721
:102540000122D2030029C16801D0114300E0914368
:10255000C1607047012292030029C16801D0114374
:1025600000E09143C16070470122D2050029C16893
:1025700001D0114300E09143C16070470904114349
:1025800001627047C2681F239B069A430A43C260D8
:102590007047012292050029C16801D0114300E073
:1025A0009143C160704701225049D20500288868D4
:1025B00001D0104300E090438860704701224B49EE
:1025C00092050028886801D0104300E0904388609D
:1025D00070470122454912060028886801D010433F
:1025E00000E0904388607047836A0B4383624261D6
:1025F0007047012252030029C16801D0114300E055
:102600009143C1607047012212040029C16801D0C2
:10261000114300E09143C160704701221203002979
:10262000C16801D0114300E09143C16070478268E6
:1026300000210123DB071A4382600F231B038268FA
:10264000491CD20FD207994201D0002AF7D18168E4
:10265000002901DB006C7047002070478168102260
:102660001143816070478168042211438160704783
:10267000006C80B270470029C16802D0012211436A
:1026800001E049084900C1607047C26802239A43CB
:10269000C260C2680A43C2607047002A426801D023
:1026A0000A4300E08A434260704702460020CB01A3
:1026B00004D5926801231B069A4300E012680A427F
:1026C00000D0012070470160704702465368002027
:1026D00012680B400A4202D0002B00D00120704744
:1026E000016070470024014003D2FFFF0027014032
:1026F0000448804704480047FEE7FEE7FEE7FEE7A0
:10270000FEE7FEE70D270008C100000810B54E489F
:10271000016801221143016041684C4A1140416047
:1027200001684B4A11400160016801229204914303
:10273000016041683F22120491434160C16A090966
:102740000901C162016BFF22543291430163416B65
:102750004908490041630021816000F02EF810BD56
:1027600070B5394D69680C2001403A483A4C03D0A5
:10277000042901D0082901D0206014E06A68696842
:10278000012392021B04160F1940B61C002907D022
:10279000E96A0907090F491C00F064F87043EBE788
:1027A0002E484643266068682B490006000F091D25
:1027B000085C2168C140216070BD1CB50021224821
:1027C00001910091026801231B041A4302605B001F
:1027D0000522120204681C400094019C641C0194B0
:1027E000009C002C02D1019C9442F3D10268920318
:1027F00028D5012100911A4A1121116041684160D8
:102800004168416041683F22120491434160416840
:102810001122120411434160016801221206114382
:10282000016001688901FCD541688908890041601F
:10283000416802221143416041680907890F02295A
:10284000FAD11CBD00911CBD001002400CB8FFF86D
:10285000FFFFF6FE00127A004000002000093D0054
:102860000020024030B50B46014600202022012402
:1028700009E00D46D5409D4205D31D469540491BB4
:102880002546954040191546521E002DF1DC30BDFD
:1028900070B500242546002801DA012440420029B1
:1028A00001DA01254942FFF7DDFFAC4200D040428A
:1028B000002C00D0494270BDF8B502464A40D40F02
:1028C00042004B0052085B089A4202D20246084678
:1028D00011464A0023D0C30D4A00DDB2120EAD1AD4
:1028E000202D35DA49020126490AF6058A19002CFD
:1028F00000D0524220214F1B1146B9402A411018E6
:10290000C20D9A4221D0002C17D0012D08DCDA0527
:10291000801AD20F8019D207DBB200F0F9FAF8BDA5
:10292000DA05801A012340001B06C01880185A429D
:102930008018CA0F1043490007E04908C207114335
:10294000DA05801A80194008801800F0D9FAF8BD1D
:1029500061000122511A001BF7E70122D207514002
:10296000AAE70122D2075040A6E7024670B54A40C6
:10297000D30FDB0740002DD04A002AD0010E140EE1
:10298000000212020919400A520A8418E50104469D
:102990005443000A120A2E045043A4194219200C71
:1029A000C543AA18120C0125AD03521C521912047A
:1029B0007F39240400D0521C104301D44000491E2A
:1029C000C2B20C06C0092018401C4008802A02D060
:1029D00003E0002070BD40084000002900DA00201C
:1029E000184370BD70B502464A40D50F40004A00FA
:1029F000ED0740085208002814D0002A12D0C40D58
:102A0000D30D41020120C0055202490A520AE41ABC
:102A1000091812187D34914201D3641C00E049006A
:102A2000002C01DA002070BD0023914201D3891AE5
:102A30000343400849000028F7D100290AD09142F9
:102A400002D10121C90705E0914201D2012101E033
:102A50000121C943E005C018401900F051FA70BDCA
:102A6000F0B507460846584087B0C00F04904800AC
:102A70000E46590040084908BC1A884105D238461C
:102A800031461E4617460B46024658004008104382
:102A90004CD0300D039040055900400D490D059074
:102AA000401A0290402872DA18030121000B090530
:102AB0000843019004980092002805D001995242E1
:102AC0000020884100920190029840210A1A019941
:102AD000009800F0E1F905460C466B4607CB00F084
:102AE000FCF9C0197141039A0E0D0023D717564007
:102AF0001A467A40164344D0049A002A2DD0029AEE
:102B0000012A039A15DC1205C01A914101263605E7
:102B1000001C7141D20F059ED207009301920296CC
:102B20002A46234600F03AFA07B0F0BD384631464F
:102B3000FAE71605224A0F46B218C01AB74101211A
:102B40000905001C4F4100187F41114618187941B2
:102B5000E20F10436D19644113E0E2076D0815435D
:102B60006408C2071443039A01261205C01A914152
:102B70003605001C7141CE07400830434908C01893
:102B800051412A46234600F0FCF9CDE7FFE70498BF
:102B900001224000C117121A00238B4104983146CC
:102BA000C417381AA141EEE730B40124E4076340AA
:102BB00030BC55E730B40124E407614030BC4FE736
:102BC0000000E0FFF0B51FB488B00B99099800240D
:102BD00048400999C00F490049080991C0070B995D
:102BE0000090490049080B9109990898A6460843A6
:102BF0001CD00B990A98084318D00998012440006A
:102C0000420D4800410D099824050003000B2043A4
:102C100009900B980003000B20430B9050181C499F
:102C20004018002201901446104605E0002001469D
:102C30000DB0F0BD032801DA034600E003239C46F3
:102C4000C11A0AAE0AE05F0008ADED5B4F00F75B0A
:102C50007D430027AA187C41491C5B1E6145F2DDBB
:102C6000410004AB5A522104120C0A43240C401CAC
:102C70000828DFDB019802900099704601910090CE
:102C8000059B049A0799069800F088F9D0E70000A0
:102C90000DFCFFFFF0B50C465C4085B0E40FE40787
:102CA00003944C00002664085900944649080246E3
:102CB0000296224321D062460A431ED06200570D7D
:102CC0004A000E032303550D012402462C49240516
:102CD000781B1B0B360B401823432643614600909C
:102CE0001C46501AB44103D30098401C009002E0E7
:102CF000921800985B41002803DA0020014605B0D5
:102D0000F0BD0020012109050746864611E0644612
:102D10001D46141BB54106D36546521BB34174468C
:102D200007430C43A646CD0740084908284392189C
:102D30005B4105460D43EAD11046184313D0604667
:102D4000194650407140084306D06046101AB341FE
:102D500006D20122002306E000220123DB0702E065
:102D60000122D2435310009874460105381C61417A
:102D7000029C039D0019694100F003F9BFE70000C0
:102D8000FD03000070B54B005B0803430BD04B0004
:102D90005C0D002633466542B341D417AD1AA341FA
:102DA00002DB0020014670BD12053018514170BD94
:102DB00010B500229623114600F0AAF810BDC20FEC
:102DC000410040020123400ADB05D207090EC0186A
:102DD0007F2901DA00207047962903DC9623591ACF
:102DE000C84001E096398840002AF4D0404270473C
:102DF00070B5CD0F4A0009030123090B1B051943C8
:102E00000B4BED070024520D9A4201DA002070BDF1
:102E1000074B34339A4203DC9A1A00F04DF802E073
:102E20000449511888402C43F1D0404270BD000045
:102E3000FF030000CDFBFFFFC20FD2074000400898
:102E40000BD0C10D0723DB01C91840020905400A58
:102E50001143C208400711437047002001467047E4
:102E6000CB0FDB07490010B5490802460A4307D0DB
:102E70000A0D07240903E401090B121B002A01DCD7
:102E8000002010BDC900440F0C43C100E018D2055A
:102E9000801800F035F810BD10B5202A04DB01467B
:102EA000203A9140002010BD914020239C1A0346F7
:102EB000E3401943904010BD10B5202A04DB0846BA
:102EC000203AD040002110BD0B46D340D0402024F2
:102ED000A21A91400843194610BD10B5202A06DBFE
:102EE000CB170846203A1041C1170B4306E00B46AA
:102EF0001341D0402024A21A91400843194610BD26
:102F0000002904DA401C490001D140084000704704
:102F100070B40024050C05D11024000402D100294E
:102F200021D01124050E01D100020834050F01D172
:102F30000001241D850F01D18000A41C002801DBA5
:102F40004000641C002908D020252E1B0D46F540AA
:102F5000A14000D001212943084301061B1B000AA0
:102F6000DB1D02D5002070BC7047DB0518188018E7
:102F70000029F8DA401C4900F5D170BC4008400037
:102F8000704710B5002B08DA0024401C61419218EC
:102F90005B411A4301D14008400010BDF0B51FB499
:102FA00082B005460C0003D0084600F0E8F802E0C5
:102FB00000F0E5F820300246009021462846FFF751
:102FC0006BFF049B059A04460F46184311430843C0
:102FD00014D0184610431BD0009840210A1A1846F6
:102FE0000599FFF769FF05460E46009A0599049872
:102FF000FFF752FF084305D0012004E02046394680
:1030000007B0F0BD0020C11705430E432C433743E2
:1030100000990E986305401A7905E40A00220C43D2
:10302000FD0A0A3002D500200146E9E70105101922
:1030300069410C9C0D9D00196941FFF7A2FFDFE774
:103040000EB5C217C10F5040CA0740180021054BEA
:103050000293019200910A460B46FFF79FFF03B0CF
:1030600000BD00003304000010B5002904DB01247A
:10307000E40740428C412146002B04DB1C4601231F
:10308000DB075242A3418B4200D1824210BD0000B7
:1030900010B5002904DB0124E40740428C4121469D
:1030A000002B04DB1C460123DB075242A34199425B
:1030B00000D1904210BD0000064C0125064E05E0EF
:1030C000E36807CC2B430C3C98471034B442F7D349
:1030D000FCF7FAFF6044000880440008FEB50023B6
:1030E0001A461B1A8A4103DB0020014603B0F0BDDB
:1030F0004A000D0301212D0B0905520D0D43D10787
:1031000002D100186D41521E5110FF31FF310131C3
:10311000002704463E4638460097019102460121A9
:1031200000200905FFF7C8FEC3197141F81832469F
:1031300084468E464A4161462846611A904104D32E
:103140006046241A954176461F46241900986D4121
:10315000401C00903428E1DDF91930467041091B0C
:10316000A84103D20022D243134601E000221346B5
:1031700001980105381C7141FFF703FFB6E72021D4
:10318000020C01D010211046020A01D01046083965
:10319000020901D01046091F820801D01046891E7D
:1031A000420801D0881E7047081A70474900CA02B9
:1031B0000243100000D004204A0D01D00122104328
:1031C000044A490D914201D102210843012800D14E
:1031D00005207047FF070000F8B504464F1EC800E1
:1031E0000838211815461E46086849683A460623DD
:1031F0009A4310D02A463346FFF7E4FC3A46D20001
:10320000083AA3181A687F1E5B68FFF729FC06229C
:103210003B469343EED1022F23D0042F11D0062F2B
:103220002FD12A463346FFF7CDFCE36AA26AFFF7A7
:1032300017FC2A463346FFF7C5FC636A226AFFF78C
:103240000FFC2A463346FFF7BDFCE369A269FFF78E
:1032500007FC2A463346FFF7B5FC63692269FFF78E
:10326000FFFB2A463346FFF7ADFCE368A268FFF791
:10327000F7FB2A463346FFF7A5FC63682268FFF791
:10328000EFFBF8BD002210B5134610460149FFF7C9
:1032900001FD10BD0000F03F10B50122FFF772FDE7
:1032A00010BD10B5FFF7DCFB10BD002210B51346B2
:1032B00010461146FFF7EEFC10BD000010B50721C7
:1032C000024A00200907FFF75DFD10BD0103000061
:1032D000034A10B500201107FFF754FD10BD000090
:1032E00001FDFFFF02E008C8121F08C1002AFAD141
:1032F00070477047002001E001C1121F002AFBD176
:103300007047000001490860704700005400002029
:10331000F0B54E00864BCF0F760887B005460C46B9
:103320009E422ED38348864211D33003000B28439C
:1033300004D02846FFF7B0FF07B0F0BD002F03D040
:103340000020014607B0F0BD284607B0F0BD7A4A1C
:103350002846FFF79DFE06D20220FFF7D3FFFFF7B6
:10336000ADFF07B0F0BD754A754B28462146FFF703
:103370007BFE06D20220FFF7C5FFFFF7A9FF07B0CB
:10338000F0BD704886424AD930466F49E20FD600F8
:10339000884215D26D4878448019436802682846EF
:1033A0002146FFF701FC0290694803917844811996
:1033B0000868496800900120C01B0191C61B25E0E8
:1033C000644A654B28462146FFF7FCFB634A7A4472
:1033D00093191A685B68FFF743FBFFF709FD064680
:1033E000FFF72EFE07465E4A5E4B0091FFF7EAFBB1
:1033F0002A462346FFF7DEFB039102905A4A5B4BB5
:1034000038460099FFF7DEFB019100900B46009AC9
:1034100003990298FFF7C8FB05460C4617E054488D
:10342000864213D2534A544B28462146FFF718FBD5
:10343000524E00223346FFF72BFE07D200223346BE
:1034400028462146FFF70CFB07B0F0BD00262A46B0
:10345000234610461946FFF7B5FB07460246484883
:103460000B46049105217844FFF7B6FE3A46049BCB
:10347000FFF7A8FB2A462346FFF79CFB0691012194
:1034800089070746002E23D002460020069BFFF73F
:103490008BFB059104903A4628462146069BFFF790
:1034A00091FB059B049AFFF7F5FB019B009AFFF740
:1034B00081FB039B029AFFF777FB00222F4BFFF75C
:1034C00079FB304A96421EDB3205891807B0F0BD01
:1034D0000B4600220699FFF767FB064600913A4625
:1034E00028462146069BFFF76DFB3246009BFFF7FF
:1034F000D1FB2A462346FFF757FB00221F4BFFF75D
:1035000059FB07B0F0BD7D233205DB05D2188918C1
:103510001D4AFFF737FC0D460446FFF747FE042817
:1035200001D1FFF7D5FE2046294607B0F0BD0000C7
:10353000422E86400000F07FEF39FAFE51302DD543
:10354000104987C0422ED63FB2A2F03FB60F00000E
:10355000B00F0000FE822B654715F73F6E0F00008D
:103560000000E0FE422EE63F763C7935EF39EA3D39
:103570000000303E9C7500883CE4377E0000F03F40
:10358000060F000003FCFFFF18FCFFFFF0B5C54A63
:1035900000248FB091420ADA4B005B08934206D8B0
:1035A00001254A006D05EA4205D1002803D0FFF746
:1035B00073FE0FB0F0BD01252D05A94219DA0343B2
:1035C00008D0002910DA0120FFF79CFEFFF76DFEFE
:1035D0000FB0F0BD0220FFF795FEFFF753FE01226A
:1035E000D20751400FB0F0BD3524E4433622FFF737
:1035F000C9FB0A15AC4B1219D4180A03120BAB49BC
:10360000AB4B56182E4031465940114301923215AA
:1036100012190B920022FFF7C7FA019A0446921C76
:103620001003A44E000B0D467E44032860D22046B2
:1036300073683268FFF718FD1CD10B98002815D06D
:10364000FFF7FEFC04460E469B4A9C4BFFF7BAFA76
:103650000D4607469A4A9B4B20463146FFF7B2FA81
:103660003A462B46FFF7FCF90FB0F0BD71683068A1
:103670000FB0F0BD944A954B20462946FFF7A2FAB9
:103680000022934BFFF796FA06460F4622462B463A
:1036900010461946FFF796FA32463B46FFF792FA74
:1036A00006460B980F4600281DD0FFF7C9FC824A3A
:1036B000824B05910490FFF785FA32463B46FFF7AF
:1036C00079FA22462B46FFF76FFA04460D467C4AEC
:1036D0007C4B05990498FFF775FA22462B46FFF7B5
:1036E00063FA0FB0F0BD0B46324620462946C4E0CF
:1036F000012300229B072046FFF7B2F902460B4642
:1037000020462946FFF7C6FA06460F460B98FFF7F4
:1037100097FC32463B460591049010461946FFF748
:1037200051FA09910C906B490198099B421800923B
:103730000C9A19461046FFF745FA024607910A907F
:10374000654901980B1A6548019303217844079B4A
:10375000FFF742FD079B0A9AFFF734FA0E905F4885
:103760000D9104217844079B0A9AFFF735FD099BC8
:103770000C9AFFF727FA019B009A1A4300920D9BBF
:103780000E9AFFF76DF9009A01910C90002A4DDD19
:103790000022D24320462946FFF7F4FA22462B4660
:1037A000FFF710FA00910A900B9800282BD0424A9C
:1037B000424B05990498FFF705FA07910E90019B7B
:1037C0000C9A00990A98FFF74BF932463B46FFF7EF
:1037D000F9F9079B0E9AFFF743F9009B0A9AFFF746
:1037E000E9F922462B46FFF7DFF904460D46344A35
:1037F000344B05990498FFF7E5F922462B46FFF76D
:10380000D3F90FB0F0BD019B0C9A0A98FFF728F985
:1038100032463B46FFF7D6F9009B0A9AFFF7CAF9F2
:1038200022462B46FFF7C6F90FB0F0BD0B980028D3
:1038300027D0214A214B05990498FFF7C3F9079136
:10384000009020462946019B0C9AFFF7ADF93246BD
:103850003B46FFF7B7F9079B009AFFF7A5F9224609
:103860002B46FFF7A1F904460D46154A154B05995D
:103870000498FFF7A7F922462B46FFF795F90FB0FA
:10388000F0BD0B46204629460C9AFFF78DF93246CB
:103890003B46FFF797F922462B46FFF78BF90FB00F
:1038A000F0BD00000000F07F01FCFFFF645F090035
:1038B0000000F03F2C0E0000763C7935EF39EA3DF0
:1038C0000000E0FE422EE63F555555555555D53F73
:1038D0000000E03F86EBF9FF51B80600480C0000FD
:1038E000F0B51FB496B084460C460246199D189850
:1038F0000390490068006300490840080193002ACA
:1039000001D0012600E000269E19FE4BF6185B1040
:103910009E422BD36E00039F0296002F00D00127FA
:10392000F719F84EF84BBE199E421FD3039E03466B
:10393000F64F334309D03B469C4201D1002A04D0C4
:10394000019B002A05D0012604E0002039461BB067
:10395000F0BD00269E19EE4B9E4207D8039F029EA3
:10396000002F00D00127F6199E4207D92B4660464A
:103970002146189AFFF795FC1BB0F0BD0023002CE0
:1039800029DAE44EB04226DAE34EB04201DB0223EC
:1039900021E0DE4EB0421EDBE04E070DBE19142EB4
:1039A00009DD3427BF1B039EFE400196BE40039FE6
:1039B000BE420BD00FE0039F002F0CD11427BF1B7A
:1039C0000646FE400196BE40864204D1019BDE07BA
:1039D000F60F02239B1B0E46164318D1002D16DA54
:1039E000002C03D0022B01D0012B06D00220FFF7C0
:1039F00089FCFFF747FC1BB0F0BD0220FFF782FCFB
:103A0000FFF740FC0122D20751401BB0F0BD039EDE
:103A1000002E61D1BF4EB04220D1C148844201D1B5
:103A2000002A08D0B948814209DB002D10DB189824
:103A300029461BB0F0BD0020B4491BB0F0BD002DDD
:103A400006DA01222946D207189851401BB0F0BD72
:103A5000B4497944086849681BB0F0BDAB4FB8421F
:103A600025D1002D1FDA002904D0B14212D1002A3D
:103A700009D018E0002A72D1A649E20F0020D2072F
:103A800011431BB0F0BD0020E20F0146D2071143E5
:103A90001BB0F0BDB14206DA234600203946FFF7DD
:103AA000F9F81BB0F0BD104621461BB0F0BDB14285
:103AB00012DA0126B607B54203D12346104619464D
:103AC000FEE3994EB54207D1261E05DB104631466E
:103AD00000F004FC1BB0F0BD67007F081646002A0A
:103AE00040D100290AD08B4A914229D1002C0EDD09
:103AF000002D1CDB002011461BB0F0BD022B16D0A0
:103B0000002C14D0012B12D1002C14DB0FE0002C60
:103B100028DA002D09DB012B03D000207D491BB0E2
:103B2000F0BD002081491BB0F0BD012B03D0002067
:103B300001461BB0F0BD00200121C9071BB0F0BD3C
:103B4000724A91420ED1002C01DA002B17D0022BC1
:103B500006D00020C043FFF773FA1BB0F0BD90E21F
:103B60000120F8E7E217521C94461A4307D00022BE
:103B70000892664C62465B1E1A4307D009E001209A
:103B8000FFF7C0FBFFF791FB1BB0F0BD0022644CB8
:103B90000892674A90427DDD664B674A98421FDD76
:103BA000914202DC002D05DB4DE05848814217DBD5
:103BB000002D48DD0220FFF7A5FBFFF77FFB054640
:103BC0000E460022534B21460898FEF7FBFF08469D
:103BD00071004908C00FC007014328461BB0F0BD63
:103BE000914215DA002D2EDA0220FFF78BFBFFF74A
:103BF00065FB05460E460022464B21460898FEF717
:103C0000E1FF72005208C80FC0070243114617E0D7
:103C10003E4B994223DD002D15DD0220FFF772FB9C
:103C2000FFF74CFB05460E4600223A4B214608980A
:103C3000FEF7C8FF084671004908C00FC0070143DE
:103C400028461BB0F0BD0220FFF75CFBFFF740FBEE
:103C500049004908E20FD20711431BB0F0BD002212
:103C600030463946FEF7A0FF012205460E46D243F4
:103C7000FFF788F8314A324BFEF79CFF2A4633465D
:103C8000FEF7A0FF0022284BFEF794FF07462A46C6
:103C9000334600E064E0039110461946FEF792FFB8
:103CA0003A46039BFEF78EFF07460322099152070F
:103CB000244B28463146FEF785FF07910C90224A97
:103CC000204B38460999FEF77DFF074601911F4AB0
:103CD0001F4B28463146FEF775FF3A46019BFEF71B
:103CE00063FF07460B460246099107990C98FEF7B9
:103CF000B7FE00250E462846079B0C9AFEF754FF98
:103D00003A4627E0FFFF1F00FFFF0F000000F03FD3
:103D10000000E0FF0000F07F0000404301FCFFFFD7
:103D20000000F0BF020A00000000E03F0000F0FFCA
:103D30000000E0410000F043FFFFEF3F55555555AF
:103D40005555D53F4715F73FFE822B6544DF5DF89B
:103D50000BAE543E099BFEF72DFF02460B4652E187
:103D6000012500202D05A94207DA352230463946C3
:103D7000FFF708F806463420C0430A151218FE481B
:103D8000101803900803FD49000B01430F46FC493E
:103D9000884201DC002003E0FA49884202DA01206F
:103DA000119005E0002011900398401C7F1B0390A8
:103DB00011980597C200F4480F9278448018436820
:103DC0000268394630460D930292FEF7EDFE0791E8
:103DD0000C9030460D9B029A0599FEF741FE024673
:103DE0000B460020E549FEF755FF09910490079B1B
:103DF0000C9AFEF7E7FE129000201090E3480D4663
:103E0000784400680E900121781049070843119901
:103E10000D9B890440180121C90447183946029AAC
:103E20000E98FEF7C1FE3246059BFEF7C3FE024622
:103E30000B4629461098FEF7C5FE064602913B4602
:103E400029460E9A1098FEF7BDFE079B0C9AFEF7C6
:103E5000B1FE3246029BFEF7A7FE099B049AFEF7CD
:103E6000B1FE0591129A0A902B4610461946FEF7AC
:103E7000A9FE06460246C6480F460B460621784470
:103E8000FFF7AAF932463B460091049010461946C6
:103E9000FEF798FE009B049AFEF794FE06460F4636
:103EA0002B461946129A1098FEF7DAFD059B0A9ADE
:103EB000FEF788FE32463B46FEF7D2FD109A079188
:103EC00004902B4610461946FEF77CFEB14E0022A8
:103ED000334609910290FEF7C3FD079B049AFEF753
:103EE000BFFD00200746024633460091FEF75CFE08
:103EF000099B029AFEF758FE079B049AFEF75AFEAA
:103F000006460D913A462946009B1098FEF75AFE48
:103F100007910C902B463046129A0D99FEF752FEEF
:103F200005460E463A46009B05990A98FEF74AFE5A
:103F300033462A46FEF794FD02460B460746099192
:103F400007990C98FEF78CFD00250E462846079B26
:103F50000C9AFEF729FE3A46099BFEF72BFE074610
:103F60000722099152078C4B31462846FEF72AFE5C
:103F700007910090894A884B38460999FEF722FE3E
:103F800007460191864A874B31462846FEF71AFEBE
:103F90003A46019BFEF764FD834B7B440F9A9B18C6
:103FA0001A685B68FEF75CFD029009910398FFF7C1
:103FB00047F805910490099B029A07990098FEF72B
:103FC0004FFD7A4B7B440F9A9B181A685B68174623
:103FD0000393FEF745FD059B049AFEF741FD0E464F
:103FE0002846059B049AFEF7DFFD3A46039BFEF741
:103FF000DBFD079B009AFEF7D7FD099B029AFEF7AF
:10400000D9FD02460B46199900200C900F461898CE
:10401000FEF7D8FD029104903B460C9A1999189826
:10402000FEF7C2FD2A463346FEF7CCFD029B049AFA
:10403000FEF716FD09910E902A46334639460C9834
:10404000FEF7C0FD06460F46099B0E9AFEF708FDD7
:10405000574A0D46914220DB5242AA18024310D122
:1040600032463B46FEF7A0FD04900391514A524B65
:1040700009990E98FEF7F4FC039B049AFFF708F8E1
:104080001ED20220FFF73EF9FFF718F94900490850
:10409000E20FD20711431BB0F0BD6A00474B520834
:1040A0009A420DD3464AAA18024300D0CBE53246C5
:1040B0003B46FEF779FD099B0E9AFEF7E9FFF5D91D
:1040C0006800002340082C490393020D3D4B521811
:1040D000984223DD01200005521CD04042195000B7
:1040E000400D401838497944096813468C463749D1
:1040F000C1408B4312030121120B090551181422F0
:10410000101AC1400391002D01DA48420390624623
:1041100030463946FEF748FD06460F4632463B46D6
:1041200009990E98FEF79CFC00252A46284B284644
:104130000591FEF747FD07910C90264A264B28462D
:104140000599FEF73FFD0091029032463B46284616
:104150000599FEF729FD099B0E9AFEF72BFD1F4AD4
:104160001F4BFEF72FFD009B029AFEF779FC0746D6
:104170000B460246099135E001FCFFFF0000F03FCD
:104180008E9803007AB60B00120600005406000059
:104190007E0500000000084009C7EE3FFD033ADC41
:1041A000F5015B14E02F3EBE52040000180400002D
:1041B00000009040FE822B654715973C00CC904054
:1041C00000346F3F0000E03F6E030000FFFF0F0070
:1041D000432EE63F396CA80C615C20BEEF39FAFE35
:1041E000422EE63F07990C98FEF73AFC05460E462C
:1041F000079B0C9AFEF7D8FC3A46099BFEF7DAFCBF
:1042000009912A4633460E9010461946FEF7DAFC0D
:10421000074602462F480B46059105217844FEF7D4
:10422000DBFF3A46059BFEF7CDFC2A463346FEF7F8
:10423000C1FC0746019128463146099B0E9AFEF7BC
:10424000C1FC099B0E9AFEF70BFC012304910C9014
:1042500000229B0738460199FEF7A6FC05910E90B7
:104260003A4628463146019BFEF7ACFC059B0E9A68
:10427000FEF710FD049B0C9AFEF796FC2A46334687
:10428000FEF792FC0022144BFEF794FC06460398BE
:104290000D46000541190915002912DC3046294652
:1042A000039AFEF76FFDFEF781FF042801D1FFF7A7
:1042B0000FF830462946039AFEF764FD064601E0F2
:1042C00004E029180B46324621460898FEF77AFC8E
:1042D0001BB0F0BD100200000000F03FF8B506462C
:1042E0000C46FEF7FBFE051E0F4600D001200143E1
:1042F00049000B484908411AC90F0DD0002E01D0C2
:10430000012100E000210C4361004908401AC00F60
:1043100002D10120FEF7F6FF28463946F8BD00001D
:104320000000F07F01000100000000000500000215
:10433000000100000000020000000800000008006A
:10434000000000000000E03F000000000000E0BFAF
:104350000000E0FE422EE63F0000E0FE422EE6BFF7
:10436000763C7935EF39EA3D763C7935EF39EABD6F
:104370003E5555555555C53F93BDBE166CC166BFDC
:104380002CDE25AF6A56113FF16BD2C541BDBBBED5
:10439000D0A4BE726937663E04FA97999999D93FBD
:1043A000AF788E1DC571CC3F9FC678D0099AC33FA8
:1043B000935555555555E53F599322942449D23F7D
:1043C000DE03CB966446C73F44523EDF12F1C23F44
:1043D000000000000000F03F000000000000F83F77
:1043E00000000000000000000000004003B8E23FB1
:1043F000000000000000000006D0CF43EBFD4C3E63
:10440000033333333333E33FFFAB6FDBB66DDB3F57
:104410004D268F515555D53F01411DA96074D13F9F
:1044200065DBC9934A86CD3FEF4E454A287ECA3F99
:104430003E5555555555C53F93BDBE166CC166BF1B
:104440002CDE25AF6A56113FF16BD2C541BDBBBE14
:10445000D0A4BE726937663E000000000000000074
:10446000804400080000002058000000E4320008EA
:10447000D84400085800002000040000F43200086E
:104480000000000000000000000000003075000087
:1044900000000C420000704200000000000000001C
:1044A0000000000000000048000800480008004824
:1044B00000000000010203040102030406070809CA
:1044C000006CDC0200000000000000000102030498
:0844D0000607080900000000C6
:04000005080000C12E
:00000001FF
